{"abi":[{"type":"constructor","inputs":[{"name":"ticketer_","type":"bytes22","internalType":"bytes22"},{"name":"content_","type":"bytes","internalType":"bytes"},{"name":"kernel_","type":"address","internalType":"address"},{"name":"name_","type":"string","internalType":"string"},{"name":"symbol_","type":"string","internalType":"string"},{"name":"decimals_","type":"uint8","internalType":"uint8"},{"name":"lzEndpoint_","type":"address","internalType":"address"},{"name":"delegate_","type":"address","internalType":"address"},{"name":"owner_","type":"address","internalType":"address"}],"stateMutability":"nonpayable"},{"type":"function","name":"SEND","inputs":[],"outputs":[{"name":"","type":"uint16","internalType":"uint16"}],"stateMutability":"view"},{"type":"function","name":"SEND_AND_CALL","inputs":[],"outputs":[{"name":"","type":"uint16","internalType":"uint16"}],"stateMutability":"view"},{"type":"function","name":"allowInitializePath","inputs":[{"name":"origin","type":"tuple","internalType":"struct Origin","components":[{"name":"srcEid","type":"uint32","internalType":"uint32"},{"name":"sender","type":"bytes32","internalType":"bytes32"},{"name":"nonce","type":"uint64","internalType":"uint64"}]}],"outputs":[{"name":"","type":"bool","internalType":"bool"}],"stateMutability":"view"},{"type":"function","name":"allowance","inputs":[{"name":"owner","type":"address","internalType":"address"},{"name":"spender","type":"address","internalType":"address"}],"outputs":[{"name":"","type":"uint256","internalType":"uint256"}],"stateMutability":"view"},{"type":"function","name":"approvalRequired","inputs":[],"outputs":[{"name":"","type":"bool","internalType":"bool"}],"stateMutability":"pure"},{"type":"function","name":"approve","inputs":[{"name":"spender","type":"address","internalType":"address"},{"name":"value","type":"uint256","internalType":"uint256"}],"outputs":[{"name":"","type":"bool","internalType":"bool"}],"stateMutability":"nonpayable"},{"type":"function","name":"balanceOf","inputs":[{"name":"account","type":"address","internalType":"address"}],"outputs":[{"name":"","type":"uint256","internalType":"uint256"}],"stateMutability":"view"},{"type":"function","name":"combineOptions","inputs":[{"name":"_eid","type":"uint32","internalType":"uint32"},{"name":"_msgType","type":"uint16","internalType":"uint16"},{"name":"_extraOptions","type":"bytes","internalType":"bytes"}],"outputs":[{"name":"","type":"bytes","internalType":"bytes"}],"stateMutability":"view"},{"type":"function","name":"decimalConversionRate","inputs":[],"outputs":[{"name":"","type":"uint256","internalType":"uint256"}],"stateMutability":"view"},{"type":"function","name":"decimals","inputs":[],"outputs":[{"name":"","type":"uint8","internalType":"uint8"}],"stateMutability":"view"},{"type":"function","name":"deposit","inputs":[{"name":"receiver","type":"address","internalType":"address"},{"name":"amount","type":"uint256","internalType":"uint256"},{"name":"ticketHash","type":"uint256","internalType":"uint256"}],"outputs":[],"stateMutability":"nonpayable"},{"type":"function","name":"endpoint","inputs":[],"outputs":[{"name":"","type":"address","internalType":"contract ILayerZeroEndpointV2"}],"stateMutability":"view"},{"type":"function","name":"enforcedOptions","inputs":[{"name":"eid","type":"uint32","internalType":"uint32"},{"name":"msgType","type":"uint16","internalType":"uint16"}],"outputs":[{"name":"enforcedOption","type":"bytes","internalType":"bytes"}],"stateMutability":"view"},{"type":"function","name":"getTicketHash","inputs":[],"outputs":[{"name":"","type":"uint256","internalType":"uint256"}],"stateMutability":"view"},{"type":"function","name":"isComposeMsgSender","inputs":[{"name":"","type":"tuple","internalType":"struct Origin","components":[{"name":"srcEid","type":"uint32","internalType":"uint32"},{"name":"sender","type":"bytes32","internalType":"bytes32"},{"name":"nonce","type":"uint64","internalType":"uint64"}]},{"name":"","type":"bytes","internalType":"bytes"},{"name":"_sender","type":"address","internalType":"address"}],"outputs":[{"name":"","type":"bool","internalType":"bool"}],"stateMutability":"view"},{"type":"function","name":"isPeer","inputs":[{"name":"_eid","type":"uint32","internalType":"uint32"},{"name":"_peer","type":"bytes32","internalType":"bytes32"}],"outputs":[{"name":"","type":"bool","internalType":"bool"}],"stateMutability":"view"},{"type":"function","name":"lzReceive","inputs":[{"name":"_origin","type":"tuple","internalType":"struct Origin","components":[{"name":"srcEid","type":"uint32","internalType":"uint32"},{"name":"sender","type":"bytes32","internalType":"bytes32"},{"name":"nonce","type":"uint64","internalType":"uint64"}]},{"name":"_guid","type":"bytes32","internalType":"bytes32"},{"name":"_message","type":"bytes","internalType":"bytes"},{"name":"_executor","type":"address","internalType":"address"},{"name":"_extraData","type":"bytes","internalType":"bytes"}],"outputs":[],"stateMutability":"payable"},{"type":"function","name":"lzReceiveAndRevert","inputs":[{"name":"_packets","type":"tuple[]","internalType":"struct InboundPacket[]","components":[{"name":"origin","type":"tuple","internalType":"struct Origin","components":[{"name":"srcEid","type":"uint32","internalType":"uint32"},{"name":"sender","type":"bytes32","internalType":"bytes32"},{"name":"nonce","type":"uint64","internalType":"uint64"}]},{"name":"dstEid","type":"uint32","internalType":"uint32"},{"name":"receiver","type":"address","internalType":"address"},{"name":"guid","type":"bytes32","internalType":"bytes32"},{"name":"value","type":"uint256","internalType":"uint256"},{"name":"executor","type":"address","internalType":"address"},{"name":"message","type":"bytes","internalType":"bytes"},{"name":"extraData","type":"bytes","internalType":"bytes"}]}],"outputs":[],"stateMutability":"payable"},{"type":"function","name":"lzReceiveSimulate","inputs":[{"name":"_origin","type":"tuple","internalType":"struct Origin","components":[{"name":"srcEid","type":"uint32","internalType":"uint32"},{"name":"sender","type":"bytes32","internalType":"bytes32"},{"name":"nonce","type":"uint64","internalType":"uint64"}]},{"name":"_guid","type":"bytes32","internalType":"bytes32"},{"name":"_message","type":"bytes","internalType":"bytes"},{"name":"_executor","type":"address","internalType":"address"},{"name":"_extraData","type":"bytes","internalType":"bytes"}],"outputs":[],"stateMutability":"payable"},{"type":"function","name":"msgInspector","inputs":[],"outputs":[{"name":"","type":"address","internalType":"address"}],"stateMutability":"view"},{"type":"function","name":"name","inputs":[],"outputs":[{"name":"","type":"string","internalType":"string"}],"stateMutability":"view"},{"type":"function","name":"nextNonce","inputs":[{"name":"","type":"uint32","internalType":"uint32"},{"name":"","type":"bytes32","internalType":"bytes32"}],"outputs":[{"name":"nonce","type":"uint64","internalType":"uint64"}],"stateMutability":"view"},{"type":"function","name":"oApp","inputs":[],"outputs":[{"name":"","type":"address","internalType":"address"}],"stateMutability":"view"},{"type":"function","name":"oAppVersion","inputs":[],"outputs":[{"name":"senderVersion","type":"uint64","internalType":"uint64"},{"name":"receiverVersion","type":"uint64","internalType":"uint64"}],"stateMutability":"pure"},{"type":"function","name":"oftVersion","inputs":[],"outputs":[{"name":"interfaceId","type":"bytes4","internalType":"bytes4"},{"name":"version","type":"uint64","internalType":"uint64"}],"stateMutability":"pure"},{"type":"function","name":"owner","inputs":[],"outputs":[{"name":"","type":"address","internalType":"address"}],"stateMutability":"view"},{"type":"function","name":"peers","inputs":[{"name":"eid","type":"uint32","internalType":"uint32"}],"outputs":[{"name":"peer","type":"bytes32","internalType":"bytes32"}],"stateMutability":"view"},{"type":"function","name":"preCrime","inputs":[],"outputs":[{"name":"","type":"address","internalType":"address"}],"stateMutability":"view"},{"type":"function","name":"quoteOFT","inputs":[{"name":"_sendParam","type":"tuple","internalType":"struct SendParam","components":[{"name":"dstEid","type":"uint32","internalType":"uint32"},{"name":"to","type":"bytes32","internalType":"bytes32"},{"name":"amountLD","type":"uint256","internalType":"uint256"},{"name":"minAmountLD","type":"uint256","internalType":"uint256"},{"name":"extraOptions","type":"bytes","internalType":"bytes"},{"name":"composeMsg","type":"bytes","internalType":"bytes"},{"name":"oftCmd","type":"bytes","internalType":"bytes"}]}],"outputs":[{"name":"oftLimit","type":"tuple","internalType":"struct OFTLimit","components":[{"name":"minAmountLD","type":"uint256","internalType":"uint256"},{"name":"maxAmountLD","type":"uint256","internalType":"uint256"}]},{"name":"oftFeeDetails","type":"tuple[]","internalType":"struct OFTFeeDetail[]","components":[{"name":"feeAmountLD","type":"int256","internalType":"int256"},{"name":"description","type":"string","internalType":"string"}]},{"name":"oftReceipt","type":"tuple","internalType":"struct OFTReceipt","components":[{"name":"amountSentLD","type":"uint256","internalType":"uint256"},{"name":"amountReceivedLD","type":"uint256","internalType":"uint256"}]}],"stateMutability":"view"},{"type":"function","name":"quoteSend","inputs":[{"name":"_sendParam","type":"tuple","internalType":"struct SendParam","components":[{"name":"dstEid","type":"uint32","internalType":"uint32"},{"name":"to","type":"bytes32","internalType":"bytes32"},{"name":"amountLD","type":"uint256","internalType":"uint256"},{"name":"minAmountLD","type":"uint256","internalType":"uint256"},{"name":"extraOptions","type":"bytes","internalType":"bytes"},{"name":"composeMsg","type":"bytes","internalType":"bytes"},{"name":"oftCmd","type":"bytes","internalType":"bytes"}]},{"name":"_payInLzToken","type":"bool","internalType":"bool"}],"outputs":[{"name":"msgFee","type":"tuple","internalType":"struct MessagingFee","components":[{"name":"nativeFee","type":"uint256","internalType":"uint256"},{"name":"lzTokenFee","type":"uint256","internalType":"uint256"}]}],"stateMutability":"view"},{"type":"function","name":"renounceOwnership","inputs":[],"outputs":[],"stateMutability":"nonpayable"},{"type":"function","name":"send","inputs":[{"name":"_sendParam","type":"tuple","internalType":"struct SendParam","components":[{"name":"dstEid","type":"uint32","internalType":"uint32"},{"name":"to","type":"bytes32","internalType":"bytes32"},{"name":"amountLD","type":"uint256","internalType":"uint256"},{"name":"minAmountLD","type":"uint256","internalType":"uint256"},{"name":"extraOptions","type":"bytes","internalType":"bytes"},{"name":"composeMsg","type":"bytes","internalType":"bytes"},{"name":"oftCmd","type":"bytes","internalType":"bytes"}]},{"name":"_fee","type":"tuple","internalType":"struct MessagingFee","components":[{"name":"nativeFee","type":"uint256","internalType":"uint256"},{"name":"lzTokenFee","type":"uint256","internalType":"uint256"}]},{"name":"_refundAddress","type":"address","internalType":"address"}],"outputs":[{"name":"msgReceipt","type":"tuple","internalType":"struct MessagingReceipt","components":[{"name":"guid","type":"bytes32","internalType":"bytes32"},{"name":"nonce","type":"uint64","internalType":"uint64"},{"name":"fee","type":"tuple","internalType":"struct MessagingFee","components":[{"name":"nativeFee","type":"uint256","internalType":"uint256"},{"name":"lzTokenFee","type":"uint256","internalType":"uint256"}]}]},{"name":"oftReceipt","type":"tuple","internalType":"struct OFTReceipt","components":[{"name":"amountSentLD","type":"uint256","internalType":"uint256"},{"name":"amountReceivedLD","type":"uint256","internalType":"uint256"}]}],"stateMutability":"payable"},{"type":"function","name":"setDelegate","inputs":[{"name":"_delegate","type":"address","internalType":"address"}],"outputs":[],"stateMutability":"nonpayable"},{"type":"function","name":"setEnforcedOptions","inputs":[{"name":"_enforcedOptions","type":"tuple[]","internalType":"struct EnforcedOptionParam[]","components":[{"name":"eid","type":"uint32","internalType":"uint32"},{"name":"msgType","type":"uint16","internalType":"uint16"},{"name":"options","type":"bytes","internalType":"bytes"}]}],"outputs":[],"stateMutability":"nonpayable"},{"type":"function","name":"setMsgInspector","inputs":[{"name":"_msgInspector","type":"address","internalType":"address"}],"outputs":[],"stateMutability":"nonpayable"},{"type":"function","name":"setPeer","inputs":[{"name":"_eid","type":"uint32","internalType":"uint32"},{"name":"_peer","type":"bytes32","internalType":"bytes32"}],"outputs":[],"stateMutability":"nonpayable"},{"type":"function","name":"setPreCrime","inputs":[{"name":"_preCrime","type":"address","internalType":"address"}],"outputs":[],"stateMutability":"nonpayable"},{"type":"function","name":"sharedDecimals","inputs":[],"outputs":[{"name":"","type":"uint8","internalType":"uint8"}],"stateMutability":"view"},{"type":"function","name":"symbol","inputs":[],"outputs":[{"name":"","type":"string","internalType":"string"}],"stateMutability":"view"},{"type":"function","name":"token","inputs":[],"outputs":[{"name":"","type":"address","internalType":"address"}],"stateMutability":"view"},{"type":"function","name":"totalSupply","inputs":[],"outputs":[{"name":"","type":"uint256","internalType":"uint256"}],"stateMutability":"view"},{"type":"function","name":"transfer","inputs":[{"name":"to","type":"address","internalType":"address"},{"name":"value","type":"uint256","internalType":"uint256"}],"outputs":[{"name":"","type":"bool","internalType":"bool"}],"stateMutability":"nonpayable"},{"type":"function","name":"transferFrom","inputs":[{"name":"from","type":"address","internalType":"address"},{"name":"to","type":"address","internalType":"address"},{"name":"value","type":"uint256","internalType":"uint256"}],"outputs":[{"name":"","type":"bool","internalType":"bool"}],"stateMutability":"nonpayable"},{"type":"function","name":"transferOwnership","inputs":[{"name":"newOwner","type":"address","internalType":"address"}],"outputs":[],"stateMutability":"nonpayable"},{"type":"function","name":"withdraw","inputs":[{"name":"sender","type":"address","internalType":"address"},{"name":"amount","type":"uint256","internalType":"uint256"},{"name":"ticketHash","type":"uint256","internalType":"uint256"}],"outputs":[],"stateMutability":"nonpayable"},{"type":"event","name":"Approval","inputs":[{"name":"owner","type":"address","indexed":true,"internalType":"address"},{"name":"spender","type":"address","indexed":true,"internalType":"address"},{"name":"value","type":"uint256","indexed":false,"internalType":"uint256"}],"anonymous":false},{"type":"event","name":"EnforcedOptionSet","inputs":[{"name":"_enforcedOptions","type":"tuple[]","indexed":false,"internalType":"struct EnforcedOptionParam[]","components":[{"name":"eid","type":"uint32","internalType":"uint32"},{"name":"msgType","type":"uint16","internalType":"uint16"},{"name":"options","type":"bytes","internalType":"bytes"}]}],"anonymous":false},{"type":"event","name":"MsgInspectorSet","inputs":[{"name":"inspector","type":"address","indexed":false,"internalType":"address"}],"anonymous":false},{"type":"event","name":"OFTReceived","inputs":[{"name":"guid","type":"bytes32","indexed":true,"internalType":"bytes32"},{"name":"srcEid","type":"uint32","indexed":false,"internalType":"uint32"},{"name":"toAddress","type":"address","indexed":true,"internalType":"address"},{"name":"amountReceivedLD","type":"uint256","indexed":false,"internalType":"uint256"}],"anonymous":false},{"type":"event","name":"OFTSent","inputs":[{"name":"guid","type":"bytes32","indexed":true,"internalType":"bytes32"},{"name":"dstEid","type":"uint32","indexed":false,"internalType":"uint32"},{"name":"fromAddress","type":"address","indexed":true,"internalType":"address"},{"name":"amountSentLD","type":"uint256","indexed":false,"internalType":"uint256"},{"name":"amountReceivedLD","type":"uint256","indexed":false,"internalType":"uint256"}],"anonymous":false},{"type":"event","name":"OwnershipTransferred","inputs":[{"name":"previousOwner","type":"address","indexed":true,"internalType":"address"},{"name":"newOwner","type":"address","indexed":true,"internalType":"address"}],"anonymous":false},{"type":"event","name":"PeerSet","inputs":[{"name":"eid","type":"uint32","indexed":false,"internalType":"uint32"},{"name":"peer","type":"bytes32","indexed":false,"internalType":"bytes32"}],"anonymous":false},{"type":"event","name":"PreCrimeSet","inputs":[{"name":"preCrimeAddress","type":"address","indexed":false,"internalType":"address"}],"anonymous":false},{"type":"event","name":"Transfer","inputs":[{"name":"from","type":"address","indexed":true,"internalType":"address"},{"name":"to","type":"address","indexed":true,"internalType":"address"},{"name":"value","type":"uint256","indexed":false,"internalType":"uint256"}],"anonymous":false},{"type":"error","name":"ERC20InsufficientAllowance","inputs":[{"name":"spender","type":"address","internalType":"address"},{"name":"allowance","type":"uint256","internalType":"uint256"},{"name":"needed","type":"uint256","internalType":"uint256"}]},{"type":"error","name":"ERC20InsufficientBalance","inputs":[{"name":"sender","type":"address","internalType":"address"},{"name":"balance","type":"uint256","internalType":"uint256"},{"name":"needed","type":"uint256","internalType":"uint256"}]},{"type":"error","name":"ERC20InvalidApprover","inputs":[{"name":"approver","type":"address","internalType":"address"}]},{"type":"error","name":"ERC20InvalidReceiver","inputs":[{"name":"receiver","type":"address","internalType":"address"}]},{"type":"error","name":"ERC20InvalidSender","inputs":[{"name":"sender","type":"address","internalType":"address"}]},{"type":"error","name":"ERC20InvalidSpender","inputs":[{"name":"spender","type":"address","internalType":"address"}]},{"type":"error","name":"InvalidDelegate","inputs":[]},{"type":"error","name":"InvalidEndpointCall","inputs":[]},{"type":"error","name":"InvalidLocalDecimals","inputs":[]},{"type":"error","name":"InvalidOptions","inputs":[{"name":"options","type":"bytes","internalType":"bytes"}]},{"type":"error","name":"LzTokenUnavailable","inputs":[]},{"type":"error","name":"NoPeer","inputs":[{"name":"eid","type":"uint32","internalType":"uint32"}]},{"type":"error","name":"NotEnoughNative","inputs":[{"name":"msgValue","type":"uint256","internalType":"uint256"}]},{"type":"error","name":"OnlyEndpoint","inputs":[{"name":"addr","type":"address","internalType":"address"}]},{"type":"error","name":"OnlyPeer","inputs":[{"name":"eid","type":"uint32","internalType":"uint32"},{"name":"sender","type":"bytes32","internalType":"bytes32"}]},{"type":"error","name":"OnlySelf","inputs":[]},{"type":"error","name":"OwnableInvalidOwner","inputs":[{"name":"owner","type":"address","internalType":"address"}]},{"type":"error","name":"OwnableUnauthorizedAccount","inputs":[{"name":"account","type":"address","internalType":"address"}]},{"type":"error","name":"SafeERC20FailedOperation","inputs":[{"name":"token","type":"address","internalType":"address"}]},{"type":"error","name":"SimulationResult","inputs":[{"name":"result","type":"bytes","internalType":"bytes"}]},{"type":"error","name":"SlippageExceeded","inputs":[{"name":"amountLD","type":"uint256","internalType":"uint256"},{"name":"minAmountLD","type":"uint256","internalType":"uint256"}]}],"bytecode":{"object":"0x6101206040523480156200001257600080fd5b5060405162003aab38038062003aab833981016040819052620000359162000370565b858584848383620000466101005190565b8484818181818d6001600160a01b0381166200007c57604051631e4fbdf760e01b81526000600482015260240160405180910390fd5b6200008781620001d0565b506001600160a01b038083166080528116620000b657604051632d618d8160e21b815260040160405180910390fd5b60805160405163ca5eb5e160e01b81526001600160a01b0383811660048301529091169063ca5eb5e190602401600060405180830381600087803b158015620000fe57600080fd5b505af115801562000113573d6000803e3d6000fd5b50505050505050506200012b6200022060201b60201c565b60ff168360ff16101562000152576040516301e9714b60e41b815260040160405180910390fd5b6200015f60068462000489565b6200016c90600a620005a8565b60a052506008915062000182905083826200064f565b5060096200019182826200064f565b50505050505050620001aa89896200022560201b60201c565b60c0525050506001600160a01b0390931660e052505060ff1661010052506200074e9050565b600080546001600160a01b038381166001600160a01b0319831681178455604051919092169283917f8be0079c531659141344cd1fd0a4f28419497f9722a3daafe3b4186f6b6457e09190a35050565b600690565b600082826040516020016200023c9291906200071b565b60408051601f1981840301815291905280516020909101209392505050565b80516001600160501b0319811681146200027457600080fd5b919050565b634e487b7160e01b600052604160045260246000fd5b60005b83811015620002ac57818101518382015260200162000292565b50506000910152565b600082601f830112620002c757600080fd5b81516001600160401b0380821115620002e457620002e462000279565b604051601f8301601f19908116603f011681019082821181831017156200030f576200030f62000279565b816040528381528660208588010111156200032957600080fd5b6200033c8460208301602089016200028f565b9695505050505050565b80516001600160a01b03811681146200027457600080fd5b805160ff811681146200027457600080fd5b60008060008060008060008060006101208a8c0312156200039057600080fd5b6200039b8a6200025b565b60208b01519099506001600160401b0380821115620003b957600080fd5b620003c78d838e01620002b5565b9950620003d760408d0162000346565b985060608c0151915080821115620003ee57600080fd5b620003fc8d838e01620002b5565b975060808c01519150808211156200041357600080fd5b50620004228c828d01620002b5565b9550506200043360a08b016200035e565b93506200044360c08b0162000346565b92506200045360e08b0162000346565b9150620004646101008b0162000346565b90509295985092959850929598565b634e487b7160e01b600052601160045260246000fd5b60ff8281168282160390811115620004a557620004a562000473565b92915050565b600181815b80851115620004ec578160001904821115620004d057620004d062000473565b80851615620004de57918102915b93841c9390800290620004b0565b509250929050565b6000826200050557506001620004a5565b816200051457506000620004a5565b81600181146200052d5760028114620005385762000558565b6001915050620004a5565b60ff8411156200054c576200054c62000473565b50506001821b620004a5565b5060208310610133831016604e8410600b84101617156200057d575081810a620004a5565b620005898383620004ab565b8060001904821115620005a057620005a062000473565b029392505050565b6000620005b960ff841683620004f4565b9392505050565b600181811c90821680620005d557607f821691505b602082108103620005f657634e487b7160e01b600052602260045260246000fd5b50919050565b601f8211156200064a57600081815260208120601f850160051c81016020861015620006255750805b601f850160051c820191505b81811015620006465782815560010162000631565b5050505b505050565b81516001600160401b038111156200066b576200066b62000279565b62000683816200067c8454620005c0565b84620005fc565b602080601f831160018114620006bb5760008415620006a25750858301515b600019600386901b1c1916600185901b17855562000646565b600085815260208120601f198616915b82811015620006ec57888601518255948401946001909101908401620006cb565b50858210156200070b5787850151600019600388901b60f8161c191681555b5050505050600190811b01905550565b6001600160501b0319831681528151600090620007408160168501602087016200028f565b919091016016019392505050565b60805160a05160c05160e051610100516132bd620007ee6000396000610442015260008181610a400152610db70152600081816104a301528181610a930152610e010152600081816106b101528181611da101528181611f40015261201a01526000818161057001528181610b11015281816112ef015281816115a40152818161190901528181611bf0015281816120e5015261219c01526132bd6000f3fe6080604052600436106102725760003560e01c8063715018a61161014f578063b98bd070116100c1578063d045a0dc1161007a578063d045a0dc14610808578063d42438851461081b578063dd62ed3e1461083b578063f2fde38b14610881578063fc0c546a146104f4578063ff7bd03d146108a157600080fd5b8063b98bd07014610747578063bb0b6a5314610767578063bc70b35414610794578063bd815db0146107b4578063c7c7f5b3146107c7578063ca5eb5e1146107e857600080fd5b806395d89b411161011357806395d89b411461068a578063963efcaa1461069f5780639f68b964146106d3578063a9059cbb146106e7578063b5c5f67214610707578063b731ea0a1461072757600080fd5b8063715018a6146105e85780637d25a05e146105fd57806382413eac14610638578063857749b0146106585780638da5cb5b1461066c57600080fd5b806323b872dd116101e857806352ae2879116101ac57806352ae2879146104f45780635535d461146105075780635a0dfe4d146105275780635e280f111461055e5780636fc1b31e1461059257806370a08231146105b257600080fd5b806323b872dd14610413578063313ce567146104335780633400288b1461047457806339bb4479146104945780633b6f743b146104c757600080fd5b806313137d651161023a57806313137d651461035b578063134d4f251461036e578063156a0d0f1461039657806317442b70146103bd57806318160ddd146103df5780631f5e1334146103fe57600080fd5b806306fdde0314610277578063095ea7b3146102a25780630d35b415146102d25780630efe6a8b14610301578063111ecdad14610323575b600080fd5b34801561028357600080fd5b5061028c6108c1565b6040516102999190612314565b60405180910390f35b3480156102ae57600080fd5b506102c26102bd36600461233c565b610953565b6040519015158152602001610299565b3480156102de57600080fd5b506102f26102ed366004612380565b61096d565b604051610299939291906123b4565b34801561030d57600080fd5b5061032161031c36600461244c565b610a3e565b005b34801561032f57600080fd5b50600454610343906001600160a01b031681565b6040516001600160a01b039091168152602001610299565b6103216103693660046124db565b610b0f565b34801561037a57600080fd5b50610383600281565b60405161ffff9091168152602001610299565b3480156103a257600080fd5b506040805162b9270b60e21b81526001602082015201610299565b3480156103c957600080fd5b5060408051600181526002602082015201610299565b3480156103eb57600080fd5b506007545b604051908152602001610299565b34801561040a57600080fd5b50610383600181565b34801561041f57600080fd5b506102c261042e36600461257a565b610bca565b34801561043f57600080fd5b507f00000000000000000000000000000000000000000000000000000000000000005b60405160ff9091168152602001610299565b34801561048057600080fd5b5061032161048f3660046125d4565b610bf0565b3480156104a057600080fd5b507f00000000000000000000000000000000000000000000000000000000000000006103f0565b3480156104d357600080fd5b506104e76104e23660046125fe565b610c06565b604051610299919061264f565b34801561050057600080fd5b5030610343565b34801561051357600080fd5b5061028c610522366004612678565b610c6d565b34801561053357600080fd5b506102c26105423660046125d4565b63ffffffff919091166000908152600160205260409020541490565b34801561056a57600080fd5b506103437f000000000000000000000000000000000000000000000000000000000000000081565b34801561059e57600080fd5b506103216105ad3660046126ab565b610d12565b3480156105be57600080fd5b506103f06105cd3660046126ab565b6001600160a01b031660009081526005602052604090205490565b3480156105f457600080fd5b50610321610d6f565b34801561060957600080fd5b506106206106183660046125d4565b600092915050565b6040516001600160401b039091168152602001610299565b34801561064457600080fd5b506102c26106533660046126c8565b610d83565b34801561066457600080fd5b506006610462565b34801561067857600080fd5b506000546001600160a01b0316610343565b34801561069657600080fd5b5061028c610d98565b3480156106ab57600080fd5b506103f07f000000000000000000000000000000000000000000000000000000000000000081565b3480156106df57600080fd5b5060006102c2565b3480156106f357600080fd5b506102c261070236600461233c565b610da7565b34801561071357600080fd5b5061032161072236600461244c565b610db5565b34801561073357600080fd5b50600254610343906001600160a01b031681565b34801561075357600080fd5b50610321610762366004612772565b610e77565b34801561077357600080fd5b506103f06107823660046127b3565b60016020526000908152604090205481565b3480156107a057600080fd5b5061028c6107af3660046127ce565b610e91565b6103216107c2366004612772565b611039565b6107da6107d536600461282e565b6111cd565b60405161029992919061289b565b3480156107f457600080fd5b506103216108033660046126ab565b6112c8565b6103216108163660046124db565b61134e565b34801561082757600080fd5b506103216108363660046126ab565b61137d565b34801561084757600080fd5b506103f06108563660046128ed565b6001600160a01b03918216600090815260066020908152604080832093909416825291909152205490565b34801561088d57600080fd5b5061032161089c3660046126ab565b6113d3565b3480156108ad57600080fd5b506102c26108bc36600461291b565b611411565b6060600880546108d090612937565b80601f01602080910402602001604051908101604052809291908181526020018280546108fc90612937565b80156109495780601f1061091e57610100808354040283529160200191610949565b820191906000526020600020905b81548152906001019060200180831161092c57829003601f168201915b5050505050905090565b600033610961818585611447565b60019150505b92915050565b604080518082019091526000808252602082015260606109a0604051806040016040528060008152602001600081525090565b60408051808201825260008082526001600160401b036020808401829052845183815290810190945291955091826109fb565b6040805180820190915260008152606060208201528152602001906001900390816109d35790505b509350600080610a20604089013560608a0135610a1b60208c018c6127b3565b611459565b60408051808201909152918252602082015296989597505050505050565b7f00000000000000000000000000000000000000000000000000000000000000006001600160a01b03163314610a8f5760405162461bcd60e51b8152600401610a8690612981565b60405180910390fd5b80807f000000000000000000000000000000000000000000000000000000000000000014610aff5760405162461bcd60e51b815260206004820152601d60248201527f4f4654657a50726f78793a2077726f6e67207469636b657420686173680000006044820152606401610a86565b610b09848461149d565b50505050565b7f00000000000000000000000000000000000000000000000000000000000000006001600160a01b03163314610b5a576040516391ac5e4f60e01b8152336004820152602401610a86565b60208701803590610b7490610b6f908a6127b3565b6114d3565b14610bb257610b8660208801886127b3565b60405163309afaf360e21b815263ffffffff909116600482015260208801356024820152604401610a86565b610bc18787878787878761150f565b50505050505050565b600033610bd8858285611676565b610be38585856116ee565b60019150505b9392505050565b610bf861174d565b610c02828261177a565b5050565b60408051808201909152600080825260208201526000610c3660408501356060860135610a1b60208801886127b3565b915050600080610c4686846117cf565b9092509050610c63610c5b60208801886127b3565b8383886118f3565b9695505050505050565b600360209081526000928352604080842090915290825290208054610c9190612937565b80601f0160208091040260200160405190810160405280929190818152602001828054610cbd90612937565b8015610d0a5780601f10610cdf57610100808354040283529160200191610d0a565b820191906000526020600020905b815481529060010190602001808311610ced57829003601f168201915b505050505081565b610d1a61174d565b600480546001600160a01b0319166001600160a01b0383169081179091556040519081527ff0be4f1e87349231d80c36b33f9e8639658eeaf474014dee15a3e6a4d4414197906020015b60405180910390a150565b610d7761174d565b610d8160006119d4565b565b6001600160a01b03811630145b949350505050565b6060600980546108d090612937565b6000336109618185856116ee565b7f00000000000000000000000000000000000000000000000000000000000000006001600160a01b03163314610dfd5760405162461bcd60e51b8152600401610a8690612981565b80807f000000000000000000000000000000000000000000000000000000000000000014610e6d5760405162461bcd60e51b815260206004820152601d60248201527f4f4654657a50726f78793a2077726f6e67207469636b657420686173680000006044820152606401610a86565b610b098484611a24565b610e7f61174d565b610c02610e8c8284612a7f565b611a5a565b63ffffffff8416600090815260036020908152604080832061ffff87168452909152812080546060929190610ec590612937565b80601f0160208091040260200160405190810160405280929190818152602001828054610ef190612937565b8015610f3e5780601f10610f1357610100808354040283529160200191610f3e565b820191906000526020600020905b815481529060010190602001808311610f2157829003601f168201915b505050505090508051600003610f8e5783838080601f016020809104026020016040519081016040528093929190818152602001838380828437600092019190915250929450610d909350505050565b6000839003610f9e579050610d90565b6002831061101c57610fe584848080601f016020809104026020016040519081016040528093929190818152602001838380828437600092019190915250611b6b92505050565b80610ff38460028188612b94565b60405160200161100593929190612bbe565b604051602081830303815290604052915050610d90565b8383604051639a6d49cd60e01b8152600401610a86929190612c0f565b60005b8181101561114c573683838381811061105757611057612c23565b90506020028101906110699190612c39565b905061109c61107b60208301836127b3565b602083013563ffffffff919091166000908152600160205260409020541490565b6110a6575061113a565b3063d045a0dc60c08301358360a08101356110c5610100830183612c5a565b6110d6610100890160e08a016126ab565b6110e46101208a018a612c5a565b6040518963ffffffff1660e01b81526004016111069796959493929190612cb5565b6000604051808303818588803b15801561111f57600080fd5b505af1158015611133573d6000803e3d6000fd5b5050505050505b8061114481612d51565b91505061103c565b50336001600160a01b0316638e9e70996040518163ffffffff1660e01b8152600401600060405180830381865afa15801561118b573d6000803e3d6000fd5b505050506040513d6000823e601f3d908101601f191682016040526111b39190810190612d6a565b604051638351eea760e01b8152600401610a869190612314565b6111d561227d565b604080518082019091526000808252602082015260008061120c33604089013560608a013561120760208c018c6127b3565b611b97565b9150915060008061121d89846117cf565b909250905061124961123260208b018b6127b3565b8383611243368d90038d018d612dd7565b8b611bbd565b60408051808201909152858152602080820186905282519298509096503391907f85496b760a4b7f8d66384b9df21b381f5d1b1e79f229a47aaf4c232edc2fe59a90611297908d018d6127b3565b6040805163ffffffff909216825260208201899052810187905260600160405180910390a350505050935093915050565b6112d061174d565b60405163ca5eb5e160e01b81526001600160a01b0382811660048301527f0000000000000000000000000000000000000000000000000000000000000000169063ca5eb5e190602401600060405180830381600087803b15801561133357600080fd5b505af1158015611347573d6000803e3d6000fd5b5050505050565b33301461136e5760405163029a949d60e31b815260040160405180910390fd5b610bc187878787878787610bb2565b61138561174d565b600280546001600160a01b0319166001600160a01b0383169081179091556040519081527fd48d879cef83a1c0bdda516f27b13ddb1b3f8bbac1c9e1511bb2a659c242776090602001610d64565b6113db61174d565b6001600160a01b03811661140557604051631e4fbdf760e01b815260006004820152602401610a86565b61140e816119d4565b50565b600060208201803590600190839061142990866127b3565b63ffffffff1681526020810191909152604001600020541492915050565b6114548383836001611cc8565b505050565b60008061146585611d9d565b915081905083811015611495576040516371c4efed60e01b81526004810182905260248101859052604401610a86565b935093915050565b6001600160a01b0382166114c75760405163ec442f0560e01b815260006004820152602401610a86565b610c0260008383611dd4565b63ffffffff8116600090815260016020526040812054806109675760405163f6ff4fb760e01b815263ffffffff84166004820152602401610a86565b600061152161151e8787611efe565b90565b9050600061154d8261153b6115368a8a611f16565b611f39565b61154860208d018d6127b3565b611f6e565b9050602886111561161457600061158a61156d60608c0160408d01612e09565b61157a60208d018d6127b3565b846115858c8c611f96565b611fe1565b604051633e5ac80960e11b81529091506001600160a01b037f00000000000000000000000000000000000000000000000000000000000000001690637cb59012906115e09086908d906000908790600401612e26565b600060405180830381600087803b1580156115fa57600080fd5b505af115801561160e573d6000803e3d6000fd5b50505050505b6001600160a01b038216887fefed6d3500546b29533b128a29e3a94d70788727f0507505ac12eaf2e578fd9c61164d60208d018d6127b3565b6040805163ffffffff9092168252602082018690520160405180910390a3505050505050505050565b6001600160a01b038381166000908152600660209081526040808320938616835292905220546000198114610b0957818110156116df57604051637dc7a0d960e11b81526001600160a01b03841660048201526024810182905260448101839052606401610a86565b610b0984848484036000611cc8565b6001600160a01b03831661171857604051634b637e8f60e11b815260006004820152602401610a86565b6001600160a01b0382166117425760405163ec442f0560e01b815260006004820152602401610a86565b611454838383611dd4565b6000546001600160a01b03163314610d815760405163118cdaa760e01b8152336004820152602401610a86565b63ffffffff8216600081815260016020908152604091829020849055815192835282018390527f238399d427b947898edb290f5ff0f9109849b1c3ba196a42e35f00c50a54b98b910160405180910390a15050565b606080600061182c85602001356117e586612013565b6117f260a0890189612c5a565b8080601f01602080910402602001604051908101604052809392919081815260200183838082843760009201919091525061203f92505050565b909350905060008161183f576001611842565b60025b905061186261185460208801886127b3565b826107af60808a018a612c5a565b6004549093506001600160a01b0316156118ea576004805460405163043a78eb60e01b81526001600160a01b039091169163043a78eb916118a7918891889101612e57565b602060405180830381865afa1580156118c4573d6000803e3d6000fd5b505050506040513d601f19601f820116820180604052508101906118e89190612e7c565b505b50509250929050565b60408051808201909152600080825260208201527f00000000000000000000000000000000000000000000000000000000000000006001600160a01b031663ddc28c586040518060a001604052808863ffffffff168152602001611956896114d3565b8152602001878152602001868152602001851515815250306040518363ffffffff1660e01b815260040161198b929190612e99565b6040805180830381865afa1580156119a7573d6000803e3d6000fd5b505050506040513d601f19601f820116820180604052508101906119cb9190612f42565b95945050505050565b600080546001600160a01b038381166001600160a01b0319831681178455604051919092169283917f8be0079c531659141344cd1fd0a4f28419497f9722a3daafe3b4186f6b6457e09190a35050565b6001600160a01b038216611a4e57604051634b637e8f60e11b815260006004820152602401610a86565b610c0282600083611dd4565b60005b8151811015611b3b57611a8c828281518110611a7b57611a7b612c23565b602002602001015160400151611b6b565b818181518110611a9e57611a9e612c23565b60200260200101516040015160036000848481518110611ac057611ac0612c23565b60200260200101516000015163ffffffff1663ffffffff1681526020019081526020016000206000848481518110611afa57611afa612c23565b60200260200101516020015161ffff1661ffff1681526020019081526020016000209081611b289190612fac565b5080611b3381612d51565b915050611a5d565b507fbe4864a8e820971c0247f5992e2da559595f7bf076a21cb5928d443d2a13b67481604051610d64919061306b565b600281015161ffff8116600314610c025781604051639a6d49cd60e01b8152600401610a869190612314565b600080611ba5858585611459565b9092509050611bb48683611a24565b94509492505050565b611bc561227d565b6000611bd484600001516120b9565b602085015190915015611bee57611bee84602001516120e1565b7f00000000000000000000000000000000000000000000000000000000000000006001600160a01b0316632637a450826040518060a001604052808b63ffffffff168152602001611c3e8c6114d3565b81526020018a815260200189815260200160008960200151111515815250866040518463ffffffff1660e01b8152600401611c7a929190612e99565b60806040518083038185885af1158015611c98573d6000803e3d6000fd5b50505050506040513d601f19601f82011682018060405250810190611cbd91906130f4565b979650505050505050565b6001600160a01b038416611cf25760405163e602df0560e01b815260006004820152602401610a86565b6001600160a01b038316611d1c57604051634a1406b160e11b815260006004820152602401610a86565b6001600160a01b0380851660009081526006602090815260408083209387168352929052208290558015610b0957826001600160a01b0316846001600160a01b03167f8c5be1e5ebec7d5bd14f71427d1e84f3dd0314c0f7b2291e5b200ac8c7c3b92584604051611d8f91815260200190565b60405180910390a350505050565b60007f0000000000000000000000000000000000000000000000000000000000000000611dca818461313e565b6109679190613160565b6001600160a01b038316611dff578060076000828254611df49190613177565b90915550611e719050565b6001600160a01b03831660009081526005602052604090205481811015611e525760405163391434e360e21b81526001600160a01b03851660048201526024810182905260448101839052606401610a86565b6001600160a01b03841660009081526005602052604090209082900390555b6001600160a01b038216611e8d57600780548290039055611eac565b6001600160a01b03821660009081526005602052604090208054820190555b816001600160a01b0316836001600160a01b03167fddf252ad1be2c89b69c2b068fc378daa952ba7f163c4a11628f55a4df523b3ef83604051611ef191815260200190565b60405180910390a3505050565b6000611f0d6020828486612b94565b610be99161318a565b6000611f26602860208486612b94565b611f2f916131a8565b60c01c9392505050565b60006109677f00000000000000000000000000000000000000000000000000000000000000006001600160401b038416613160565b60006001600160a01b038416611f845761dead93505b611f8e848461149d565b509092915050565b6060611fa58260288186612b94565b8080601f016020809104026020016040519081016040528093929190818152602001838380828437600092019190915250929695505050505050565b606084848484604051602001611ffa94939291906131d8565b6040516020818303038152906040529050949350505050565b60006109677f00000000000000000000000000000000000000000000000000000000000000008361313e565b805160609015158061208857848460405160200161207492919091825260c01b6001600160c01b031916602082015260280190565b6040516020818303038152906040526120af565b8484338560405160200161209f9493929190613227565b6040516020818303038152906040525b9150935093915050565b60008134146120dd576040516304fb820960e51b8152346004820152602401610a86565b5090565b60007f00000000000000000000000000000000000000000000000000000000000000006001600160a01b031663e4fe1d946040518163ffffffff1660e01b8152600401602060405180830381865afa158015612141573d6000803e3d6000fd5b505050506040513d601f19601f82011682018060405250810190612165919061326a565b90506001600160a01b03811661218e576040516329b99a9560e11b815260040160405180910390fd5b6040805133602482018190527f00000000000000000000000000000000000000000000000000000000000000006001600160a01b0381811660448501526064808501889052855180860390910181526084909401909452602080840180516001600160e01b03166323b872dd60e01b1781528451610c02968816958993610b0993889360009283929091839182885af18061222f576040513d6000823e3d81fd5b50506000513d91508115612247578060011415612254565b6001600160a01b0384163b155b15610b0957604051635274afe760e01b81526001600160a01b0385166004820152602401610a86565b60405180606001604052806000801916815260200160006001600160401b031681526020016122bf604051806040016040528060008152602001600081525090565b905290565b60005b838110156122df5781810151838201526020016122c7565b50506000910152565b600081518084526123008160208601602086016122c4565b601f01601f19169290920160200192915050565b602081526000610be960208301846122e8565b6001600160a01b038116811461140e57600080fd5b6000806040838503121561234f57600080fd5b823561235a81612327565b946020939093013593505050565b600060e0828403121561237a57600080fd5b50919050565b60006020828403121561239257600080fd5b81356001600160401b038111156123a857600080fd5b610d9084828501612368565b8351815260208085015190820152600060a08201604060a08185015281865180845260c08601915060c08160051b8701019350602080890160005b8381101561242e5788870360bf1901855281518051885283015183880187905261241b878901826122e8565b97505093820193908201906001016123ef565b50508751606088015250505060208501516080850152509050610d90565b60008060006060848603121561246157600080fd5b833561246c81612327565b95602085013595506040909401359392505050565b60006060828403121561237a57600080fd5b60008083601f8401126124a557600080fd5b5081356001600160401b038111156124bc57600080fd5b6020830191508360208285010111156124d457600080fd5b9250929050565b600080600080600080600060e0888a0312156124f657600080fd5b6125008989612481565b96506060880135955060808801356001600160401b038082111561252357600080fd5b61252f8b838c01612493565b909750955060a08a0135915061254482612327565b90935060c0890135908082111561255a57600080fd5b506125678a828b01612493565b989b979a50959850939692959293505050565b60008060006060848603121561258f57600080fd5b833561259a81612327565b925060208401356125aa81612327565b929592945050506040919091013590565b803563ffffffff811681146125cf57600080fd5b919050565b600080604083850312156125e757600080fd5b61235a836125bb565b801515811461140e57600080fd5b6000806040838503121561261157600080fd5b82356001600160401b0381111561262757600080fd5b61263385828601612368565b9250506020830135612644816125f0565b809150509250929050565b815181526020808301519082015260408101610967565b803561ffff811681146125cf57600080fd5b6000806040838503121561268b57600080fd5b612694836125bb565b91506126a260208401612666565b90509250929050565b6000602082840312156126bd57600080fd5b8135610be981612327565b60008060008060a085870312156126de57600080fd5b6126e88686612481565b935060608501356001600160401b0381111561270357600080fd5b61270f87828801612493565b909450925050608085013561272381612327565b939692955090935050565b60008083601f84011261274057600080fd5b5081356001600160401b0381111561275757600080fd5b6020830191508360208260051b85010111156124d457600080fd5b6000806020838503121561278557600080fd5b82356001600160401b0381111561279b57600080fd5b6127a78582860161272e565b90969095509350505050565b6000602082840312156127c557600080fd5b610be9826125bb565b600080600080606085870312156127e457600080fd5b6127ed856125bb565b93506127fb60208601612666565b925060408501356001600160401b0381111561281657600080fd5b61282287828801612493565b95989497509550505050565b6000806000838503608081121561284457600080fd5b84356001600160401b0381111561285a57600080fd5b61286687828801612368565b9450506040601f198201121561287b57600080fd5b50602084019150606084013561289081612327565b809150509250925092565b600060c082019050835182526001600160401b03602085015116602083015260408401516128d6604084018280518252602090810151910152565b5082516080830152602083015160a0830152610be9565b6000806040838503121561290057600080fd5b823561290b81612327565b9150602083013561264481612327565b60006060828403121561292d57600080fd5b610be98383612481565b600181811c9082168061294b57607f821691505b60208210810361237a57634e487b7160e01b600052602260045260246000fd5b634e487b7160e01b600052604160045260246000fd5b6020808252603c908201527f4f4654657a50726f78793a206f6e6c79206b65726e656c20616c6c6f7765642060408201527f746f206465706f736974202f20776974686472617720746f6b656e7300000000606082015260800190565b604051606081016001600160401b0381118282101715612a0057612a0061296b565b60405290565b604080519081016001600160401b0381118282101715612a0057612a0061296b565b604051601f8201601f191681016001600160401b0381118282101715612a5057612a5061296b565b604052919050565b60006001600160401b03821115612a7157612a7161296b565b50601f01601f191660200190565b60006001600160401b0380841115612a9957612a9961296b565b8360051b6020612aaa818301612a28565b868152918501918181019036841115612ac257600080fd5b865b84811015612b8857803586811115612adc5760008081fd5b88016060368290031215612af05760008081fd5b612af86129de565b612b01826125bb565b8152612b0e868301612666565b8682015260408083013589811115612b265760008081fd5b929092019136601f840112612b3b5760008081fd5b8235612b4e612b4982612a58565b612a28565b8181523689838701011115612b635760008081fd5b818986018a830137600091810189019190915290820152845250918301918301612ac4565b50979650505050505050565b60008085851115612ba457600080fd5b83861115612bb157600080fd5b5050820193919092039150565b60008451612bd08184602089016122c4565b8201838582376000930192835250909392505050565b81835281816020850137506000828201602090810191909152601f909101601f19169091010190565b602081526000610d90602083018486612be6565b634e487b7160e01b600052603260045260246000fd5b6000823561013e19833603018112612c5057600080fd5b9190910192915050565b6000808335601e19843603018112612c7157600080fd5b8301803591506001600160401b03821115612c8b57600080fd5b6020019150368190038213156124d457600080fd5b6001600160401b038116811461140e57600080fd5b63ffffffff612cc3896125bb565b1681526020880135602082015260006040890135612ce081612ca0565b6001600160401b03811660408401525087606083015260e06080830152612d0b60e083018789612be6565b6001600160a01b03861660a084015282810360c0840152612d2d818587612be6565b9a9950505050505050505050565b634e487b7160e01b600052601160045260246000fd5b600060018201612d6357612d63612d3b565b5060010190565b600060208284031215612d7c57600080fd5b81516001600160401b03811115612d9257600080fd5b8201601f81018413612da357600080fd5b8051612db1612b4982612a58565b818152856020838501011115612dc657600080fd5b6119cb8260208301602086016122c4565b600060408284031215612de957600080fd5b612df1612a06565b82358152602083013560208201528091505092915050565b600060208284031215612e1b57600080fd5b8135610be981612ca0565b60018060a01b038516815283602082015261ffff83166040820152608060608201526000610c6360808301846122e8565b604081526000612e6a60408301856122e8565b82810360208401526119cb81856122e8565b600060208284031215612e8e57600080fd5b8151610be9816125f0565b6040815263ffffffff8351166040820152602083015160608201526000604084015160a06080840152612ecf60e08401826122e8565b90506060850151603f198483030160a0850152612eec82826122e8565b60809690960151151560c08501525050506001600160a01b039190911660209091015290565b600060408284031215612f2457600080fd5b612f2c612a06565b9050815181526020820151602082015292915050565b600060408284031215612f5457600080fd5b610be98383612f12565b601f82111561145457600081815260208120601f850160051c81016020861015612f855750805b601f850160051c820191505b81811015612fa457828155600101612f91565b505050505050565b81516001600160401b03811115612fc557612fc561296b565b612fd981612fd38454612937565b84612f5e565b602080601f83116001811461300e5760008415612ff65750858301515b600019600386901b1c1916600185901b178555612fa4565b600085815260208120601f198616915b8281101561303d5788860151825594840194600190910190840161301e565b508582101561305b5787850151600019600388901b60f8161c191681555b5050505050600190811b01905550565b60006020808301818452808551808352604092508286019150828160051b87010184880160005b838110156130e657888303603f190185528151805163ffffffff1684528781015161ffff168885015286015160608785018190526130d2818601836122e8565b968901969450505090860190600101613092565b509098975050505050505050565b60006080828403121561310657600080fd5b61310e6129de565b82518152602083015161312081612ca0565b60208201526131328460408501612f12565b60408201529392505050565b60008261315b57634e487b7160e01b600052601260045260246000fd5b500490565b808202811582820484141761096757610967612d3b565b8082018082111561096757610967612d3b565b8035602083101561096757600019602084900360031b1b1692915050565b6001600160c01b031981358181169160088510156131d05780818660080360031b1b83161692505b505092915050565b6001600160401b0360c01b8560c01b16815263ffffffff60e01b8460e01b16600882015282600c8201526000825161321781602c8501602087016122c4565b91909101602c0195945050505050565b8481526001600160401b0360c01b8460c01b1660208201528260288201526000825161325a8160488501602087016122c4565b9190910160480195945050505050565b60006020828403121561327c57600080fd5b8151610be98161232756fea264697066735822122055f62a4c8da8c23cee28f8c9b542776376bc635b2d1f305660fcc5f35e82030c64736f6c63430008150033","linkReferences":{}},"methodIdentifiers":{"SEND()":"1f5e1334","SEND_AND_CALL()":"134d4f25","allowInitializePath((uint32,bytes32,uint64))":"ff7bd03d","allowance(address,address)":"dd62ed3e","approvalRequired()":"9f68b964","approve(address,uint256)":"095ea7b3","balanceOf(address)":"70a08231","combineOptions(uint32,uint16,bytes)":"bc70b354","decimalConversionRate()":"963efcaa","decimals()":"313ce567","deposit(address,uint256,uint256)":"0efe6a8b","endpoint()":"5e280f11","enforcedOptions(uint32,uint16)":"5535d461","getTicketHash()":"39bb4479","isComposeMsgSender((uint32,bytes32,uint64),bytes,address)":"82413eac","isPeer(uint32,bytes32)":"5a0dfe4d","lzReceive((uint32,bytes32,uint64),bytes32,bytes,address,bytes)":"13137d65","lzReceiveAndRevert(((uint32,bytes32,uint64),uint32,address,bytes32,uint256,address,bytes,bytes)[])":"bd815db0","lzReceiveSimulate((uint32,bytes32,uint64),bytes32,bytes,address,bytes)":"d045a0dc","msgInspector()":"111ecdad","name()":"06fdde03","nextNonce(uint32,bytes32)":"7d25a05e","oApp()":"52ae2879","oAppVersion()":"17442b70","oftVersion()":"156a0d0f","owner()":"8da5cb5b","peers(uint32)":"bb0b6a53","preCrime()":"b731ea0a","quoteOFT((uint32,bytes32,uint256,uint256,bytes,bytes,bytes))":"0d35b415","quoteSend((uint32,bytes32,uint256,uint256,bytes,bytes,bytes),bool)":"3b6f743b","renounceOwnership()":"715018a6","send((uint32,bytes32,uint256,uint256,bytes,bytes,bytes),(uint256,uint256),address)":"c7c7f5b3","setDelegate(address)":"ca5eb5e1","setEnforcedOptions((uint32,uint16,bytes)[])":"b98bd070","setMsgInspector(address)":"6fc1b31e","setPeer(uint32,bytes32)":"3400288b","setPreCrime(address)":"d4243885","sharedDecimals()":"857749b0","symbol()":"95d89b41","token()":"fc0c546a","totalSupply()":"18160ddd","transfer(address,uint256)":"a9059cbb","transferFrom(address,address,uint256)":"23b872dd","transferOwnership(address)":"f2fde38b","withdraw(address,uint256,uint256)":"b5c5f672"},"id":67}