{"abi":[{"type":"constructor","inputs":[{"name":"name_","type":"string","internalType":"string"},{"name":"symbol_","type":"string","internalType":"string"},{"name":"decimals_","type":"uint8","internalType":"uint8"},{"name":"lzEndpoint_","type":"address","internalType":"address"},{"name":"delegate_","type":"address","internalType":"address"},{"name":"owner_","type":"address","internalType":"address"}],"stateMutability":"nonpayable"},{"type":"function","name":"SEND","inputs":[],"outputs":[{"name":"","type":"uint16","internalType":"uint16"}],"stateMutability":"view"},{"type":"function","name":"SEND_AND_CALL","inputs":[],"outputs":[{"name":"","type":"uint16","internalType":"uint16"}],"stateMutability":"view"},{"type":"function","name":"allowInitializePath","inputs":[{"name":"origin","type":"tuple","internalType":"struct Origin","components":[{"name":"srcEid","type":"uint32","internalType":"uint32"},{"name":"sender","type":"bytes32","internalType":"bytes32"},{"name":"nonce","type":"uint64","internalType":"uint64"}]}],"outputs":[{"name":"","type":"bool","internalType":"bool"}],"stateMutability":"view"},{"type":"function","name":"allowance","inputs":[{"name":"owner","type":"address","internalType":"address"},{"name":"spender","type":"address","internalType":"address"}],"outputs":[{"name":"","type":"uint256","internalType":"uint256"}],"stateMutability":"view"},{"type":"function","name":"approvalRequired","inputs":[],"outputs":[{"name":"","type":"bool","internalType":"bool"}],"stateMutability":"pure"},{"type":"function","name":"approve","inputs":[{"name":"spender","type":"address","internalType":"address"},{"name":"value","type":"uint256","internalType":"uint256"}],"outputs":[{"name":"","type":"bool","internalType":"bool"}],"stateMutability":"nonpayable"},{"type":"function","name":"balanceOf","inputs":[{"name":"account","type":"address","internalType":"address"}],"outputs":[{"name":"","type":"uint256","internalType":"uint256"}],"stateMutability":"view"},{"type":"function","name":"combineOptions","inputs":[{"name":"_eid","type":"uint32","internalType":"uint32"},{"name":"_msgType","type":"uint16","internalType":"uint16"},{"name":"_extraOptions","type":"bytes","internalType":"bytes"}],"outputs":[{"name":"","type":"bytes","internalType":"bytes"}],"stateMutability":"view"},{"type":"function","name":"decimalConversionRate","inputs":[],"outputs":[{"name":"","type":"uint256","internalType":"uint256"}],"stateMutability":"view"},{"type":"function","name":"decimals","inputs":[],"outputs":[{"name":"","type":"uint8","internalType":"uint8"}],"stateMutability":"view"},{"type":"function","name":"endpoint","inputs":[],"outputs":[{"name":"","type":"address","internalType":"contract ILayerZeroEndpointV2"}],"stateMutability":"view"},{"type":"function","name":"enforcedOptions","inputs":[{"name":"eid","type":"uint32","internalType":"uint32"},{"name":"msgType","type":"uint16","internalType":"uint16"}],"outputs":[{"name":"enforcedOption","type":"bytes","internalType":"bytes"}],"stateMutability":"view"},{"type":"function","name":"isComposeMsgSender","inputs":[{"name":"","type":"tuple","internalType":"struct Origin","components":[{"name":"srcEid","type":"uint32","internalType":"uint32"},{"name":"sender","type":"bytes32","internalType":"bytes32"},{"name":"nonce","type":"uint64","internalType":"uint64"}]},{"name":"","type":"bytes","internalType":"bytes"},{"name":"_sender","type":"address","internalType":"address"}],"outputs":[{"name":"","type":"bool","internalType":"bool"}],"stateMutability":"view"},{"type":"function","name":"isPeer","inputs":[{"name":"_eid","type":"uint32","internalType":"uint32"},{"name":"_peer","type":"bytes32","internalType":"bytes32"}],"outputs":[{"name":"","type":"bool","internalType":"bool"}],"stateMutability":"view"},{"type":"function","name":"lzReceive","inputs":[{"name":"_origin","type":"tuple","internalType":"struct Origin","components":[{"name":"srcEid","type":"uint32","internalType":"uint32"},{"name":"sender","type":"bytes32","internalType":"bytes32"},{"name":"nonce","type":"uint64","internalType":"uint64"}]},{"name":"_guid","type":"bytes32","internalType":"bytes32"},{"name":"_message","type":"bytes","internalType":"bytes"},{"name":"_executor","type":"address","internalType":"address"},{"name":"_extraData","type":"bytes","internalType":"bytes"}],"outputs":[],"stateMutability":"payable"},{"type":"function","name":"lzReceiveAndRevert","inputs":[{"name":"_packets","type":"tuple[]","internalType":"struct InboundPacket[]","components":[{"name":"origin","type":"tuple","internalType":"struct Origin","components":[{"name":"srcEid","type":"uint32","internalType":"uint32"},{"name":"sender","type":"bytes32","internalType":"bytes32"},{"name":"nonce","type":"uint64","internalType":"uint64"}]},{"name":"dstEid","type":"uint32","internalType":"uint32"},{"name":"receiver","type":"address","internalType":"address"},{"name":"guid","type":"bytes32","internalType":"bytes32"},{"name":"value","type":"uint256","internalType":"uint256"},{"name":"executor","type":"address","internalType":"address"},{"name":"message","type":"bytes","internalType":"bytes"},{"name":"extraData","type":"bytes","internalType":"bytes"}]}],"outputs":[],"stateMutability":"payable"},{"type":"function","name":"lzReceiveSimulate","inputs":[{"name":"_origin","type":"tuple","internalType":"struct Origin","components":[{"name":"srcEid","type":"uint32","internalType":"uint32"},{"name":"sender","type":"bytes32","internalType":"bytes32"},{"name":"nonce","type":"uint64","internalType":"uint64"}]},{"name":"_guid","type":"bytes32","internalType":"bytes32"},{"name":"_message","type":"bytes","internalType":"bytes"},{"name":"_executor","type":"address","internalType":"address"},{"name":"_extraData","type":"bytes","internalType":"bytes"}],"outputs":[],"stateMutability":"payable"},{"type":"function","name":"msgInspector","inputs":[],"outputs":[{"name":"","type":"address","internalType":"address"}],"stateMutability":"view"},{"type":"function","name":"name","inputs":[],"outputs":[{"name":"","type":"string","internalType":"string"}],"stateMutability":"view"},{"type":"function","name":"nextNonce","inputs":[{"name":"","type":"uint32","internalType":"uint32"},{"name":"","type":"bytes32","internalType":"bytes32"}],"outputs":[{"name":"nonce","type":"uint64","internalType":"uint64"}],"stateMutability":"view"},{"type":"function","name":"oApp","inputs":[],"outputs":[{"name":"","type":"address","internalType":"address"}],"stateMutability":"view"},{"type":"function","name":"oAppVersion","inputs":[],"outputs":[{"name":"senderVersion","type":"uint64","internalType":"uint64"},{"name":"receiverVersion","type":"uint64","internalType":"uint64"}],"stateMutability":"pure"},{"type":"function","name":"oftVersion","inputs":[],"outputs":[{"name":"interfaceId","type":"bytes4","internalType":"bytes4"},{"name":"version","type":"uint64","internalType":"uint64"}],"stateMutability":"pure"},{"type":"function","name":"owner","inputs":[],"outputs":[{"name":"","type":"address","internalType":"address"}],"stateMutability":"view"},{"type":"function","name":"peers","inputs":[{"name":"eid","type":"uint32","internalType":"uint32"}],"outputs":[{"name":"peer","type":"bytes32","internalType":"bytes32"}],"stateMutability":"view"},{"type":"function","name":"preCrime","inputs":[],"outputs":[{"name":"","type":"address","internalType":"address"}],"stateMutability":"view"},{"type":"function","name":"quoteOFT","inputs":[{"name":"_sendParam","type":"tuple","internalType":"struct SendParam","components":[{"name":"dstEid","type":"uint32","internalType":"uint32"},{"name":"to","type":"bytes32","internalType":"bytes32"},{"name":"amountLD","type":"uint256","internalType":"uint256"},{"name":"minAmountLD","type":"uint256","internalType":"uint256"},{"name":"extraOptions","type":"bytes","internalType":"bytes"},{"name":"composeMsg","type":"bytes","internalType":"bytes"},{"name":"oftCmd","type":"bytes","internalType":"bytes"}]}],"outputs":[{"name":"oftLimit","type":"tuple","internalType":"struct OFTLimit","components":[{"name":"minAmountLD","type":"uint256","internalType":"uint256"},{"name":"maxAmountLD","type":"uint256","internalType":"uint256"}]},{"name":"oftFeeDetails","type":"tuple[]","internalType":"struct OFTFeeDetail[]","components":[{"name":"feeAmountLD","type":"int256","internalType":"int256"},{"name":"description","type":"string","internalType":"string"}]},{"name":"oftReceipt","type":"tuple","internalType":"struct OFTReceipt","components":[{"name":"amountSentLD","type":"uint256","internalType":"uint256"},{"name":"amountReceivedLD","type":"uint256","internalType":"uint256"}]}],"stateMutability":"view"},{"type":"function","name":"quoteSend","inputs":[{"name":"_sendParam","type":"tuple","internalType":"struct SendParam","components":[{"name":"dstEid","type":"uint32","internalType":"uint32"},{"name":"to","type":"bytes32","internalType":"bytes32"},{"name":"amountLD","type":"uint256","internalType":"uint256"},{"name":"minAmountLD","type":"uint256","internalType":"uint256"},{"name":"extraOptions","type":"bytes","internalType":"bytes"},{"name":"composeMsg","type":"bytes","internalType":"bytes"},{"name":"oftCmd","type":"bytes","internalType":"bytes"}]},{"name":"_payInLzToken","type":"bool","internalType":"bool"}],"outputs":[{"name":"msgFee","type":"tuple","internalType":"struct MessagingFee","components":[{"name":"nativeFee","type":"uint256","internalType":"uint256"},{"name":"lzTokenFee","type":"uint256","internalType":"uint256"}]}],"stateMutability":"view"},{"type":"function","name":"renounceOwnership","inputs":[],"outputs":[],"stateMutability":"nonpayable"},{"type":"function","name":"send","inputs":[{"name":"_sendParam","type":"tuple","internalType":"struct SendParam","components":[{"name":"dstEid","type":"uint32","internalType":"uint32"},{"name":"to","type":"bytes32","internalType":"bytes32"},{"name":"amountLD","type":"uint256","internalType":"uint256"},{"name":"minAmountLD","type":"uint256","internalType":"uint256"},{"name":"extraOptions","type":"bytes","internalType":"bytes"},{"name":"composeMsg","type":"bytes","internalType":"bytes"},{"name":"oftCmd","type":"bytes","internalType":"bytes"}]},{"name":"_fee","type":"tuple","internalType":"struct MessagingFee","components":[{"name":"nativeFee","type":"uint256","internalType":"uint256"},{"name":"lzTokenFee","type":"uint256","internalType":"uint256"}]},{"name":"_refundAddress","type":"address","internalType":"address"}],"outputs":[{"name":"msgReceipt","type":"tuple","internalType":"struct MessagingReceipt","components":[{"name":"guid","type":"bytes32","internalType":"bytes32"},{"name":"nonce","type":"uint64","internalType":"uint64"},{"name":"fee","type":"tuple","internalType":"struct MessagingFee","components":[{"name":"nativeFee","type":"uint256","internalType":"uint256"},{"name":"lzTokenFee","type":"uint256","internalType":"uint256"}]}]},{"name":"oftReceipt","type":"tuple","internalType":"struct OFTReceipt","components":[{"name":"amountSentLD","type":"uint256","internalType":"uint256"},{"name":"amountReceivedLD","type":"uint256","internalType":"uint256"}]}],"stateMutability":"payable"},{"type":"function","name":"setDelegate","inputs":[{"name":"_delegate","type":"address","internalType":"address"}],"outputs":[],"stateMutability":"nonpayable"},{"type":"function","name":"setEnforcedOptions","inputs":[{"name":"_enforcedOptions","type":"tuple[]","internalType":"struct EnforcedOptionParam[]","components":[{"name":"eid","type":"uint32","internalType":"uint32"},{"name":"msgType","type":"uint16","internalType":"uint16"},{"name":"options","type":"bytes","internalType":"bytes"}]}],"outputs":[],"stateMutability":"nonpayable"},{"type":"function","name":"setMsgInspector","inputs":[{"name":"_msgInspector","type":"address","internalType":"address"}],"outputs":[],"stateMutability":"nonpayable"},{"type":"function","name":"setPeer","inputs":[{"name":"_eid","type":"uint32","internalType":"uint32"},{"name":"_peer","type":"bytes32","internalType":"bytes32"}],"outputs":[],"stateMutability":"nonpayable"},{"type":"function","name":"setPreCrime","inputs":[{"name":"_preCrime","type":"address","internalType":"address"}],"outputs":[],"stateMutability":"nonpayable"},{"type":"function","name":"sharedDecimals","inputs":[],"outputs":[{"name":"","type":"uint8","internalType":"uint8"}],"stateMutability":"view"},{"type":"function","name":"symbol","inputs":[],"outputs":[{"name":"","type":"string","internalType":"string"}],"stateMutability":"view"},{"type":"function","name":"token","inputs":[],"outputs":[{"name":"","type":"address","internalType":"address"}],"stateMutability":"view"},{"type":"function","name":"totalSupply","inputs":[],"outputs":[{"name":"","type":"uint256","internalType":"uint256"}],"stateMutability":"view"},{"type":"function","name":"transfer","inputs":[{"name":"to","type":"address","internalType":"address"},{"name":"value","type":"uint256","internalType":"uint256"}],"outputs":[{"name":"","type":"bool","internalType":"bool"}],"stateMutability":"nonpayable"},{"type":"function","name":"transferFrom","inputs":[{"name":"from","type":"address","internalType":"address"},{"name":"to","type":"address","internalType":"address"},{"name":"value","type":"uint256","internalType":"uint256"}],"outputs":[{"name":"","type":"bool","internalType":"bool"}],"stateMutability":"nonpayable"},{"type":"function","name":"transferOwnership","inputs":[{"name":"newOwner","type":"address","internalType":"address"}],"outputs":[],"stateMutability":"nonpayable"},{"type":"event","name":"Approval","inputs":[{"name":"owner","type":"address","indexed":true,"internalType":"address"},{"name":"spender","type":"address","indexed":true,"internalType":"address"},{"name":"value","type":"uint256","indexed":false,"internalType":"uint256"}],"anonymous":false},{"type":"event","name":"EnforcedOptionSet","inputs":[{"name":"_enforcedOptions","type":"tuple[]","indexed":false,"internalType":"struct EnforcedOptionParam[]","components":[{"name":"eid","type":"uint32","internalType":"uint32"},{"name":"msgType","type":"uint16","internalType":"uint16"},{"name":"options","type":"bytes","internalType":"bytes"}]}],"anonymous":false},{"type":"event","name":"MsgInspectorSet","inputs":[{"name":"inspector","type":"address","indexed":false,"internalType":"address"}],"anonymous":false},{"type":"event","name":"OFTReceived","inputs":[{"name":"guid","type":"bytes32","indexed":true,"internalType":"bytes32"},{"name":"srcEid","type":"uint32","indexed":false,"internalType":"uint32"},{"name":"toAddress","type":"address","indexed":true,"internalType":"address"},{"name":"amountReceivedLD","type":"uint256","indexed":false,"internalType":"uint256"}],"anonymous":false},{"type":"event","name":"OFTSent","inputs":[{"name":"guid","type":"bytes32","indexed":true,"internalType":"bytes32"},{"name":"dstEid","type":"uint32","indexed":false,"internalType":"uint32"},{"name":"fromAddress","type":"address","indexed":true,"internalType":"address"},{"name":"amountSentLD","type":"uint256","indexed":false,"internalType":"uint256"},{"name":"amountReceivedLD","type":"uint256","indexed":false,"internalType":"uint256"}],"anonymous":false},{"type":"event","name":"OwnershipTransferred","inputs":[{"name":"previousOwner","type":"address","indexed":true,"internalType":"address"},{"name":"newOwner","type":"address","indexed":true,"internalType":"address"}],"anonymous":false},{"type":"event","name":"PeerSet","inputs":[{"name":"eid","type":"uint32","indexed":false,"internalType":"uint32"},{"name":"peer","type":"bytes32","indexed":false,"internalType":"bytes32"}],"anonymous":false},{"type":"event","name":"PreCrimeSet","inputs":[{"name":"preCrimeAddress","type":"address","indexed":false,"internalType":"address"}],"anonymous":false},{"type":"event","name":"Transfer","inputs":[{"name":"from","type":"address","indexed":true,"internalType":"address"},{"name":"to","type":"address","indexed":true,"internalType":"address"},{"name":"value","type":"uint256","indexed":false,"internalType":"uint256"}],"anonymous":false},{"type":"error","name":"ERC20InsufficientAllowance","inputs":[{"name":"spender","type":"address","internalType":"address"},{"name":"allowance","type":"uint256","internalType":"uint256"},{"name":"needed","type":"uint256","internalType":"uint256"}]},{"type":"error","name":"ERC20InsufficientBalance","inputs":[{"name":"sender","type":"address","internalType":"address"},{"name":"balance","type":"uint256","internalType":"uint256"},{"name":"needed","type":"uint256","internalType":"uint256"}]},{"type":"error","name":"ERC20InvalidApprover","inputs":[{"name":"approver","type":"address","internalType":"address"}]},{"type":"error","name":"ERC20InvalidReceiver","inputs":[{"name":"receiver","type":"address","internalType":"address"}]},{"type":"error","name":"ERC20InvalidSender","inputs":[{"name":"sender","type":"address","internalType":"address"}]},{"type":"error","name":"ERC20InvalidSpender","inputs":[{"name":"spender","type":"address","internalType":"address"}]},{"type":"error","name":"InvalidDelegate","inputs":[]},{"type":"error","name":"InvalidEndpointCall","inputs":[]},{"type":"error","name":"InvalidLocalDecimals","inputs":[]},{"type":"error","name":"InvalidOptions","inputs":[{"name":"options","type":"bytes","internalType":"bytes"}]},{"type":"error","name":"LzTokenUnavailable","inputs":[]},{"type":"error","name":"NoPeer","inputs":[{"name":"eid","type":"uint32","internalType":"uint32"}]},{"type":"error","name":"NotEnoughNative","inputs":[{"name":"msgValue","type":"uint256","internalType":"uint256"}]},{"type":"error","name":"OnlyEndpoint","inputs":[{"name":"addr","type":"address","internalType":"address"}]},{"type":"error","name":"OnlyPeer","inputs":[{"name":"eid","type":"uint32","internalType":"uint32"},{"name":"sender","type":"bytes32","internalType":"bytes32"}]},{"type":"error","name":"OnlySelf","inputs":[]},{"type":"error","name":"OwnableInvalidOwner","inputs":[{"name":"owner","type":"address","internalType":"address"}]},{"type":"error","name":"OwnableUnauthorizedAccount","inputs":[{"name":"account","type":"address","internalType":"address"}]},{"type":"error","name":"SafeERC20FailedOperation","inputs":[{"name":"token","type":"address","internalType":"address"}]},{"type":"error","name":"SimulationResult","inputs":[{"name":"result","type":"bytes","internalType":"bytes"}]},{"type":"error","name":"SlippageExceeded","inputs":[{"name":"amountLD","type":"uint256","internalType":"uint256"},{"name":"minAmountLD","type":"uint256","internalType":"uint256"}]}],"bytecode":{"object":"0x60e06040523480156200001157600080fd5b50604051620036d4380380620036d48339810160408190526200003491620002e1565b8585848483836200004460c05190565b8484818181818d6001600160a01b0381166200007a57604051631e4fbdf760e01b81526000600482015260240160405180910390fd5b6200008581620001aa565b506001600160a01b038083166080528116620000b457604051632d618d8160e21b815260040160405180910390fd5b60805160405163ca5eb5e160e01b81526001600160a01b0383811660048301529091169063ca5eb5e190602401600060405180830381600087803b158015620000fc57600080fd5b505af115801562000111573d6000803e3d6000fd5b505050505050505062000129620001fa60201b60201c565b60ff168360ff16101562000150576040516301e9714b60e41b815260040160405180910390fd5b6200015d600684620003b1565b6200016a90600a620004d0565b60a0525060089150620001809050838262000577565b5060096200018f828262000577565b50505060ff90971660c0525062000643975050505050505050565b600080546001600160a01b038381166001600160a01b0319831681178455604051919092169283917f8be0079c531659141344cd1fd0a4f28419497f9722a3daafe3b4186f6b6457e09190a35050565b600690565b634e487b7160e01b600052604160045260246000fd5b600082601f8301126200022757600080fd5b81516001600160401b0380821115620002445762000244620001ff565b604051601f8301601f19908116603f011681019082821181831017156200026f576200026f620001ff565b816040528381526020925086838588010111156200028c57600080fd5b600091505b83821015620002b0578582018301518183018401529082019062000291565b600093810190920192909252949350505050565b80516001600160a01b0381168114620002dc57600080fd5b919050565b60008060008060008060c08789031215620002fb57600080fd5b86516001600160401b03808211156200031357600080fd5b620003218a838b0162000215565b975060208901519150808211156200033857600080fd5b506200034789828a0162000215565b955050604087015160ff811681146200035f57600080fd5b93506200036f60608801620002c4565b92506200037f60808801620002c4565b91506200038f60a08801620002c4565b90509295509295509295565b634e487b7160e01b600052601160045260246000fd5b60ff8281168282160390811115620003cd57620003cd6200039b565b92915050565b600181815b8085111562000414578160001904821115620003f857620003f86200039b565b808516156200040657918102915b93841c9390800290620003d8565b509250929050565b6000826200042d57506001620003cd565b816200043c57506000620003cd565b8160018114620004555760028114620004605762000480565b6001915050620003cd565b60ff8411156200047457620004746200039b565b50506001821b620003cd565b5060208310610133831016604e8410600b8410161715620004a5575081810a620003cd565b620004b18383620003d3565b8060001904821115620004c857620004c86200039b565b029392505050565b6000620004e160ff8416836200041c565b9392505050565b600181811c90821680620004fd57607f821691505b6020821081036200051e57634e487b7160e01b600052602260045260246000fd5b50919050565b601f8211156200057257600081815260208120601f850160051c810160208610156200054d5750805b601f850160051c820191505b818110156200056e5782815560010162000559565b5050505b505050565b81516001600160401b03811115620005935762000593620001ff565b620005ab81620005a48454620004e8565b8462000524565b602080601f831160018114620005e35760008415620005ca5750858301515b600019600386901b1c1916600185901b1785556200056e565b600085815260208120601f198616915b828110156200061457888601518255948401946001909101908401620005f3565b5085821015620006335787850151600019600388901b60f8161c191681555b5050505050600190811b01905550565b60805160a05160c05161301b620006b9600039600061040101526000818161063d01528181611b1901528181611b8e0152611d920152600081816104fc015281816109ac015281816110cd0152818161134c015281816116b70152818161196801528181611e930152611f4c015261301b6000f3fe6080604052600436106102515760003560e01c80637d25a05e11610139578063bb0b6a53116100b6578063d045a0dc1161007a578063d045a0dc14610774578063d424388514610787578063dd62ed3e146107a7578063f2fde38b146107ed578063fc0c546a14610480578063ff7bd03d1461080d57600080fd5b8063bb0b6a53146106d3578063bc70b35414610700578063bd815db014610720578063c7c7f5b314610733578063ca5eb5e11461075457600080fd5b8063963efcaa116100fd578063963efcaa1461062b5780639f68b9641461065f578063a9059cbb14610673578063b731ea0a14610693578063b98bd070146106b357600080fd5b80637d25a05e1461058957806382413eac146105c4578063857749b0146105e45780638da5cb5b146105f857806395d89b411461061657600080fd5b806323b872dd116101d25780635535d461116101965780635535d461146104935780635a0dfe4d146104b35780635e280f11146104ea5780636fc1b31e1461051e57806370a082311461053e578063715018a61461057457600080fd5b806323b872dd146103d2578063313ce567146103f25780633400288b146104335780633b6f743b1461045357806352ae28791461048057600080fd5b8063134d4f2511610219578063134d4f251461032d578063156a0d0f1461035557806317442b701461037c57806318160ddd1461039e5780631f5e1334146103bd57600080fd5b806306fdde0314610256578063095ea7b3146102815780630d35b415146102b1578063111ecdad146102e057806313137d6514610318575b600080fd5b34801561026257600080fd5b5061026b61082d565b6040516102789190612104565b60405180910390f35b34801561028d57600080fd5b506102a161029c36600461212c565b6108bf565b6040519015158152602001610278565b3480156102bd57600080fd5b506102d16102cc366004612170565b6108d9565b604051610278939291906121a4565b3480156102ec57600080fd5b50600454610300906001600160a01b031681565b6040516001600160a01b039091168152602001610278565b61032b610326366004612296565b6109aa565b005b34801561033957600080fd5b50610342600281565b60405161ffff9091168152602001610278565b34801561036157600080fd5b506040805162b9270b60e21b81526001602082015201610278565b34801561038857600080fd5b5060408051600181526002602082015201610278565b3480156103aa57600080fd5b506007545b604051908152602001610278565b3480156103c957600080fd5b50610342600181565b3480156103de57600080fd5b506102a16103ed366004612335565b610a6a565b3480156103fe57600080fd5b507f00000000000000000000000000000000000000000000000000000000000000005b60405160ff9091168152602001610278565b34801561043f57600080fd5b5061032b61044e36600461238f565b610a90565b34801561045f57600080fd5b5061047361046e3660046123b9565b610aa6565b604051610278919061240a565b34801561048c57600080fd5b5030610300565b34801561049f57600080fd5b5061026b6104ae366004612433565b610b0d565b3480156104bf57600080fd5b506102a16104ce36600461238f565b63ffffffff919091166000908152600160205260409020541490565b3480156104f657600080fd5b506103007f000000000000000000000000000000000000000000000000000000000000000081565b34801561052a57600080fd5b5061032b610539366004612466565b610bb2565b34801561054a57600080fd5b506103af610559366004612466565b6001600160a01b031660009081526005602052604090205490565b34801561058057600080fd5b5061032b610c0f565b34801561059557600080fd5b506105ac6105a436600461238f565b600092915050565b6040516001600160401b039091168152602001610278565b3480156105d057600080fd5b506102a16105df366004612483565b610c23565b3480156105f057600080fd5b506006610421565b34801561060457600080fd5b506000546001600160a01b0316610300565b34801561062257600080fd5b5061026b610c38565b34801561063757600080fd5b506103af7f000000000000000000000000000000000000000000000000000000000000000081565b34801561066b57600080fd5b5060006102a1565b34801561067f57600080fd5b506102a161068e36600461212c565b610c47565b34801561069f57600080fd5b50600254610300906001600160a01b031681565b3480156106bf57600080fd5b5061032b6106ce36600461252d565b610c55565b3480156106df57600080fd5b506103af6106ee36600461256e565b60016020526000908152604090205481565b34801561070c57600080fd5b5061026b61071b366004612589565b610c6f565b61032b61072e36600461252d565b610e17565b6107466107413660046125e9565b610fab565b604051610278929190612656565b34801561076057600080fd5b5061032b61076f366004612466565b6110a6565b61032b610782366004612296565b61112c565b34801561079357600080fd5b5061032b6107a2366004612466565b61115b565b3480156107b357600080fd5b506103af6107c23660046126a8565b6001600160a01b03918216600090815260066020908152604080832093909416825291909152205490565b3480156107f957600080fd5b5061032b610808366004612466565b6111b1565b34801561081957600080fd5b506102a16108283660046126d6565b6111ef565b60606008805461083c906126f2565b80601f0160208091040260200160405190810160405280929190818152602001828054610868906126f2565b80156108b55780601f1061088a576101008083540402835291602001916108b5565b820191906000526020600020905b81548152906001019060200180831161089857829003601f168201915b5050505050905090565b6000336108cd818585611225565b60019150505b92915050565b6040805180820190915260008082526020820152606061090c604051806040016040528060008152602001600081525090565b60408051808201825260008082526001600160401b03602080840182905284518381529081019094529195509182610967565b60408051808201909152600081526060602082015281526020019060019003908161093f5790505b50935060008061098c604089013560608a013561098760208c018c61256e565b611237565b60408051808201909152918252602082015296989597505050505050565b7f00000000000000000000000000000000000000000000000000000000000000006001600160a01b031633146109fa576040516391ac5e4f60e01b81523360048201526024015b60405180910390fd5b60208701803590610a1490610a0f908a61256e565b61127b565b14610a5257610a26602088018861256e565b60405163309afaf360e21b815263ffffffff9091166004820152602088013560248201526044016109f1565b610a61878787878787876112b7565b50505050505050565b600033610a7885828561141e565b610a8385858561149c565b60019150505b9392505050565b610a986114fb565b610aa28282611528565b5050565b60408051808201909152600080825260208201526000610ad660408501356060860135610987602088018861256e565b915050600080610ae6868461157d565b9092509050610b03610afb602088018861256e565b8383886116a1565b9695505050505050565b600360209081526000928352604080842090915290825290208054610b31906126f2565b80601f0160208091040260200160405190810160405280929190818152602001828054610b5d906126f2565b8015610baa5780601f10610b7f57610100808354040283529160200191610baa565b820191906000526020600020905b815481529060010190602001808311610b8d57829003601f168201915b505050505081565b610bba6114fb565b600480546001600160a01b0319166001600160a01b0383169081179091556040519081527ff0be4f1e87349231d80c36b33f9e8639658eeaf474014dee15a3e6a4d4414197906020015b60405180910390a150565b610c176114fb565b610c216000611782565b565b6001600160a01b03811630145b949350505050565b60606009805461083c906126f2565b6000336108cd81858561149c565b610c5d6114fb565b610aa2610c6a82846127dd565b6117d2565b63ffffffff8416600090815260036020908152604080832061ffff87168452909152812080546060929190610ca3906126f2565b80601f0160208091040260200160405190810160405280929190818152602001828054610ccf906126f2565b8015610d1c5780601f10610cf157610100808354040283529160200191610d1c565b820191906000526020600020905b815481529060010190602001808311610cff57829003601f168201915b505050505090508051600003610d6c5783838080601f016020809104026020016040519081016040528093929190818152602001838380828437600092019190915250929450610c309350505050565b6000839003610d7c579050610c30565b60028310610dfa57610dc384848080601f0160208091040260200160405190810160405280939291908181526020018383808284376000920191909152506118e392505050565b80610dd184600281886128f2565b604051602001610de39392919061291c565b604051602081830303815290604052915050610c30565b8383604051639a6d49cd60e01b81526004016109f192919061296d565b60005b81811015610f2a5736838383818110610e3557610e35612981565b9050602002810190610e479190612997565b9050610e7a610e59602083018361256e565b602083013563ffffffff919091166000908152600160205260409020541490565b610e845750610f18565b3063d045a0dc60c08301358360a0810135610ea36101008301836129b8565b610eb4610100890160e08a01612466565b610ec26101208a018a6129b8565b6040518963ffffffff1660e01b8152600401610ee49796959493929190612a13565b6000604051808303818588803b158015610efd57600080fd5b505af1158015610f11573d6000803e3d6000fd5b5050505050505b80610f2281612aaf565b915050610e1a565b50336001600160a01b0316638e9e70996040518163ffffffff1660e01b8152600401600060405180830381865afa158015610f69573d6000803e3d6000fd5b505050506040513d6000823e601f3d908101601f19168201604052610f919190810190612ac8565b604051638351eea760e01b81526004016109f19190612104565b610fb361206d565b6040805180820190915260008082526020820152600080610fea33604089013560608a0135610fe560208c018c61256e565b61190f565b91509150600080610ffb898461157d565b909250905061102761101060208b018b61256e565b8383611021368d90038d018d612b35565b8b611935565b60408051808201909152858152602080820186905282519298509096503391907f85496b760a4b7f8d66384b9df21b381f5d1b1e79f229a47aaf4c232edc2fe59a90611075908d018d61256e565b6040805163ffffffff909216825260208201899052810187905260600160405180910390a350505050935093915050565b6110ae6114fb565b60405163ca5eb5e160e01b81526001600160a01b0382811660048301527f0000000000000000000000000000000000000000000000000000000000000000169063ca5eb5e190602401600060405180830381600087803b15801561111157600080fd5b505af1158015611125573d6000803e3d6000fd5b5050505050565b33301461114c5760405163029a949d60e31b815260040160405180910390fd5b610a6187878787878787610a52565b6111636114fb565b600280546001600160a01b0319166001600160a01b0383169081179091556040519081527fd48d879cef83a1c0bdda516f27b13ddb1b3f8bbac1c9e1511bb2a659c242776090602001610c04565b6111b96114fb565b6001600160a01b0381166111e357604051631e4fbdf760e01b8152600060048201526024016109f1565b6111ec81611782565b50565b6000602082018035906001908390611207908661256e565b63ffffffff1681526020810191909152604001600020541492915050565b6112328383836001611a40565b505050565b60008061124385611b15565b915081905083811015611273576040516371c4efed60e01b815260048101829052602481018590526044016109f1565b935093915050565b63ffffffff8116600090815260016020526040812054806108d35760405163f6ff4fb760e01b815263ffffffff841660048201526024016109f1565b60006112c96112c68787611b4c565b90565b905060006112f5826112e36112de8a8a611b64565b611b87565b6112f060208d018d61256e565b611bbc565b905060288611156113bc57600061133261131560608c0160408d01612b67565b61132260208d018d61256e565b8461132d8c8c611be4565b611c2f565b604051633e5ac80960e11b81529091506001600160a01b037f00000000000000000000000000000000000000000000000000000000000000001690637cb59012906113889086908d906000908790600401612b84565b600060405180830381600087803b1580156113a257600080fd5b505af11580156113b6573d6000803e3d6000fd5b50505050505b6001600160a01b038216887fefed6d3500546b29533b128a29e3a94d70788727f0507505ac12eaf2e578fd9c6113f560208d018d61256e565b6040805163ffffffff9092168252602082018690520160405180910390a3505050505050505050565b6001600160a01b038381166000908152600660209081526040808320938616835292905220546000198114611496578181101561148757604051637dc7a0d960e11b81526001600160a01b038416600482015260248101829052604481018390526064016109f1565b61149684848484036000611a40565b50505050565b6001600160a01b0383166114c657604051634b637e8f60e11b8152600060048201526024016109f1565b6001600160a01b0382166114f05760405163ec442f0560e01b8152600060048201526024016109f1565b611232838383611c61565b6000546001600160a01b03163314610c215760405163118cdaa760e01b81523360048201526024016109f1565b63ffffffff8216600081815260016020908152604091829020849055815192835282018390527f238399d427b947898edb290f5ff0f9109849b1c3ba196a42e35f00c50a54b98b910160405180910390a15050565b60608060006115da856020013561159386611d8b565b6115a060a08901896129b8565b8080601f016020809104026020016040519081016040528093929190818152602001838380828437600092019190915250611db792505050565b90935090506000816115ed5760016115f0565b60025b9050611610611602602088018861256e565b8261071b60808a018a6129b8565b6004549093506001600160a01b031615611698576004805460405163043a78eb60e01b81526001600160a01b039091169163043a78eb91611655918891889101612bb5565b602060405180830381865afa158015611672573d6000803e3d6000fd5b505050506040513d601f19601f820116820180604052508101906116969190612bda565b505b50509250929050565b60408051808201909152600080825260208201527f00000000000000000000000000000000000000000000000000000000000000006001600160a01b031663ddc28c586040518060a001604052808863ffffffff1681526020016117048961127b565b8152602001878152602001868152602001851515815250306040518363ffffffff1660e01b8152600401611739929190612bf7565b6040805180830381865afa158015611755573d6000803e3d6000fd5b505050506040513d601f19601f820116820180604052508101906117799190612ca0565b95945050505050565b600080546001600160a01b038381166001600160a01b0319831681178455604051919092169283917f8be0079c531659141344cd1fd0a4f28419497f9722a3daafe3b4186f6b6457e09190a35050565b60005b81518110156118b3576118048282815181106117f3576117f3612981565b6020026020010151604001516118e3565b81818151811061181657611816612981565b6020026020010151604001516003600084848151811061183857611838612981565b60200260200101516000015163ffffffff1663ffffffff168152602001908152602001600020600084848151811061187257611872612981565b60200260200101516020015161ffff1661ffff16815260200190815260200160002090816118a09190612d0a565b50806118ab81612aaf565b9150506117d5565b507fbe4864a8e820971c0247f5992e2da559595f7bf076a21cb5928d443d2a13b67481604051610c049190612dc9565b600281015161ffff8116600314610aa25781604051639a6d49cd60e01b81526004016109f19190612104565b60008061191d858585611237565b909250905061192c8683611e31565b94509492505050565b61193d61206d565b600061194c8460000151611e67565b602085015190915015611966576119668460200151611e8f565b7f00000000000000000000000000000000000000000000000000000000000000006001600160a01b0316632637a450826040518060a001604052808b63ffffffff1681526020016119b68c61127b565b81526020018a815260200189815260200160008960200151111515815250866040518463ffffffff1660e01b81526004016119f2929190612bf7565b60806040518083038185885af1158015611a10573d6000803e3d6000fd5b50505050506040513d601f19601f82011682018060405250810190611a359190612e52565b979650505050505050565b6001600160a01b038416611a6a5760405163e602df0560e01b8152600060048201526024016109f1565b6001600160a01b038316611a9457604051634a1406b160e11b8152600060048201526024016109f1565b6001600160a01b038085166000908152600660209081526040808320938716835292905220829055801561149657826001600160a01b0316846001600160a01b03167f8c5be1e5ebec7d5bd14f71427d1e84f3dd0314c0f7b2291e5b200ac8c7c3b92584604051611b0791815260200190565b60405180910390a350505050565b60007f0000000000000000000000000000000000000000000000000000000000000000611b428184612e9c565b6108d39190612ebe565b6000611b5b60208284866128f2565b610a8991612ed5565b6000611b746028602084866128f2565b611b7d91612ef3565b60c01c9392505050565b60006108d37f00000000000000000000000000000000000000000000000000000000000000006001600160401b038416612ebe565b60006001600160a01b038416611bd25761dead93505b611bdc8484611f71565b509092915050565b6060611bf382602881866128f2565b8080601f016020809104026020016040519081016040528093929190818152602001838380828437600092019190915250929695505050505050565b606084848484604051602001611c489493929190612f23565b6040516020818303038152906040529050949350505050565b6001600160a01b038316611c8c578060076000828254611c819190612f72565b90915550611cfe9050565b6001600160a01b03831660009081526005602052604090205481811015611cdf5760405163391434e360e21b81526001600160a01b038516600482015260248101829052604481018390526064016109f1565b6001600160a01b03841660009081526005602052604090209082900390555b6001600160a01b038216611d1a57600780548290039055611d39565b6001600160a01b03821660009081526005602052604090208054820190555b816001600160a01b0316836001600160a01b03167fddf252ad1be2c89b69c2b068fc378daa952ba7f163c4a11628f55a4df523b3ef83604051611d7e91815260200190565b60405180910390a3505050565b60006108d37f000000000000000000000000000000000000000000000000000000000000000083612e9c565b8051606090151580611e00578484604051602001611dec92919091825260c01b6001600160c01b031916602082015260280190565b604051602081830303815290604052611e27565b84843385604051602001611e179493929190612f85565b6040516020818303038152906040525b9150935093915050565b6001600160a01b038216611e5b57604051634b637e8f60e11b8152600060048201526024016109f1565b610aa282600083611c61565b6000813414611e8b576040516304fb820960e51b81523460048201526024016109f1565b5090565b60007f00000000000000000000000000000000000000000000000000000000000000006001600160a01b031663e4fe1d946040518163ffffffff1660e01b8152600401602060405180830381865afa158015611eef573d6000803e3d6000fd5b505050506040513d601f19601f82011682018060405250810190611f139190612fc8565b90506001600160a01b038116611f3c576040516329b99a9560e11b815260040160405180910390fd5b610aa26001600160a01b038216337f000000000000000000000000000000000000000000000000000000000000000085611fa7565b6001600160a01b038216611f9b5760405163ec442f0560e01b8152600060048201526024016109f1565b610aa260008383611c61565b604080516001600160a01b038581166024830152841660448201526064808201849052825180830390910181526084909101909152602080820180516001600160e01b03166323b872dd60e01b1781528251611496938893909260009283929183919082885af18061201f576040513d6000823e3d81fd5b50506000513d91508115612037578060011415612044565b6001600160a01b0384163b155b1561149657604051635274afe760e01b81526001600160a01b03851660048201526024016109f1565b60405180606001604052806000801916815260200160006001600160401b031681526020016120af604051806040016040528060008152602001600081525090565b905290565b60005b838110156120cf5781810151838201526020016120b7565b50506000910152565b600081518084526120f08160208601602086016120b4565b601f01601f19169290920160200192915050565b602081526000610a8960208301846120d8565b6001600160a01b03811681146111ec57600080fd5b6000806040838503121561213f57600080fd5b823561214a81612117565b946020939093013593505050565b600060e0828403121561216a57600080fd5b50919050565b60006020828403121561218257600080fd5b81356001600160401b0381111561219857600080fd5b610c3084828501612158565b8351815260208085015190820152600060a08201604060a08185015281865180845260c08601915060c08160051b8701019350602080890160005b8381101561221e5788870360bf1901855281518051885283015183880187905261220b878901826120d8565b97505093820193908201906001016121df565b50508751606088015250505060208501516080850152509050610c30565b60006060828403121561216a57600080fd5b60008083601f84011261226057600080fd5b5081356001600160401b0381111561227757600080fd5b60208301915083602082850101111561228f57600080fd5b9250929050565b600080600080600080600060e0888a0312156122b157600080fd5b6122bb898961223c565b96506060880135955060808801356001600160401b03808211156122de57600080fd5b6122ea8b838c0161224e565b909750955060a08a013591506122ff82612117565b90935060c0890135908082111561231557600080fd5b506123228a828b0161224e565b989b979a50959850939692959293505050565b60008060006060848603121561234a57600080fd5b833561235581612117565b9250602084013561236581612117565b929592945050506040919091013590565b803563ffffffff8116811461238a57600080fd5b919050565b600080604083850312156123a257600080fd5b61214a83612376565b80151581146111ec57600080fd5b600080604083850312156123cc57600080fd5b82356001600160401b038111156123e257600080fd5b6123ee85828601612158565b92505060208301356123ff816123ab565b809150509250929050565b8151815260208083015190820152604081016108d3565b803561ffff8116811461238a57600080fd5b6000806040838503121561244657600080fd5b61244f83612376565b915061245d60208401612421565b90509250929050565b60006020828403121561247857600080fd5b8135610a8981612117565b60008060008060a0858703121561249957600080fd5b6124a3868661223c565b935060608501356001600160401b038111156124be57600080fd5b6124ca8782880161224e565b90945092505060808501356124de81612117565b939692955090935050565b60008083601f8401126124fb57600080fd5b5081356001600160401b0381111561251257600080fd5b6020830191508360208260051b850101111561228f57600080fd5b6000806020838503121561254057600080fd5b82356001600160401b0381111561255657600080fd5b612562858286016124e9565b90969095509350505050565b60006020828403121561258057600080fd5b610a8982612376565b6000806000806060858703121561259f57600080fd5b6125a885612376565b93506125b660208601612421565b925060408501356001600160401b038111156125d157600080fd5b6125dd8782880161224e565b95989497509550505050565b600080600083850360808112156125ff57600080fd5b84356001600160401b0381111561261557600080fd5b61262187828801612158565b9450506040601f198201121561263657600080fd5b50602084019150606084013561264b81612117565b809150509250925092565b600060c082019050835182526001600160401b0360208501511660208301526040840151612691604084018280518252602090810151910152565b5082516080830152602083015160a0830152610a89565b600080604083850312156126bb57600080fd5b82356126c681612117565b915060208301356123ff81612117565b6000606082840312156126e857600080fd5b610a89838361223c565b600181811c9082168061270657607f821691505b60208210810361216a57634e487b7160e01b600052602260045260246000fd5b634e487b7160e01b600052604160045260246000fd5b604051606081016001600160401b038111828210171561275e5761275e612726565b60405290565b604080519081016001600160401b038111828210171561275e5761275e612726565b604051601f8201601f191681016001600160401b03811182821017156127ae576127ae612726565b604052919050565b60006001600160401b038211156127cf576127cf612726565b50601f01601f191660200190565b60006001600160401b03808411156127f7576127f7612726565b8360051b6020612808818301612786565b86815291850191818101903684111561282057600080fd5b865b848110156128e65780358681111561283a5760008081fd5b8801606036829003121561284e5760008081fd5b61285661273c565b61285f82612376565b815261286c868301612421565b86820152604080830135898111156128845760008081fd5b929092019136601f8401126128995760008081fd5b82356128ac6128a7826127b6565b612786565b81815236898387010111156128c15760008081fd5b818986018a830137600091810189019190915290820152845250918301918301612822565b50979650505050505050565b6000808585111561290257600080fd5b8386111561290f57600080fd5b5050820193919092039150565b6000845161292e8184602089016120b4565b8201838582376000930192835250909392505050565b81835281816020850137506000828201602090810191909152601f909101601f19169091010190565b602081526000610c30602083018486612944565b634e487b7160e01b600052603260045260246000fd5b6000823561013e198336030181126129ae57600080fd5b9190910192915050565b6000808335601e198436030181126129cf57600080fd5b8301803591506001600160401b038211156129e957600080fd5b60200191503681900382131561228f57600080fd5b6001600160401b03811681146111ec57600080fd5b63ffffffff612a2189612376565b1681526020880135602082015260006040890135612a3e816129fe565b6001600160401b03811660408401525087606083015260e06080830152612a6960e083018789612944565b6001600160a01b03861660a084015282810360c0840152612a8b818587612944565b9a9950505050505050505050565b634e487b7160e01b600052601160045260246000fd5b600060018201612ac157612ac1612a99565b5060010190565b600060208284031215612ada57600080fd5b81516001600160401b03811115612af057600080fd5b8201601f81018413612b0157600080fd5b8051612b0f6128a7826127b6565b818152856020838501011115612b2457600080fd5b6117798260208301602086016120b4565b600060408284031215612b4757600080fd5b612b4f612764565b82358152602083013560208201528091505092915050565b600060208284031215612b7957600080fd5b8135610a89816129fe565b60018060a01b038516815283602082015261ffff83166040820152608060608201526000610b0360808301846120d8565b604081526000612bc860408301856120d8565b828103602084015261177981856120d8565b600060208284031215612bec57600080fd5b8151610a89816123ab565b6040815263ffffffff8351166040820152602083015160608201526000604084015160a06080840152612c2d60e08401826120d8565b90506060850151603f198483030160a0850152612c4a82826120d8565b60809690960151151560c08501525050506001600160a01b039190911660209091015290565b600060408284031215612c8257600080fd5b612c8a612764565b9050815181526020820151602082015292915050565b600060408284031215612cb257600080fd5b610a898383612c70565b601f82111561123257600081815260208120601f850160051c81016020861015612ce35750805b601f850160051c820191505b81811015612d0257828155600101612cef565b505050505050565b81516001600160401b03811115612d2357612d23612726565b612d3781612d3184546126f2565b84612cbc565b602080601f831160018114612d6c5760008415612d545750858301515b600019600386901b1c1916600185901b178555612d02565b600085815260208120601f198616915b82811015612d9b57888601518255948401946001909101908401612d7c565b5085821015612db95787850151600019600388901b60f8161c191681555b5050505050600190811b01905550565b60006020808301818452808551808352604092508286019150828160051b87010184880160005b83811015612e4457888303603f190185528151805163ffffffff1684528781015161ffff16888501528601516060878501819052612e30818601836120d8565b968901969450505090860190600101612df0565b509098975050505050505050565b600060808284031215612e6457600080fd5b612e6c61273c565b825181526020830151612e7e816129fe565b6020820152612e908460408501612c70565b60408201529392505050565b600082612eb957634e487b7160e01b600052601260045260246000fd5b500490565b80820281158282048414176108d3576108d3612a99565b803560208310156108d357600019602084900360031b1b1692915050565b6001600160c01b03198135818116916008851015612f1b5780818660080360031b1b83161692505b505092915050565b6001600160401b0360c01b8560c01b16815263ffffffff60e01b8460e01b16600882015282600c82015260008251612f6281602c8501602087016120b4565b91909101602c0195945050505050565b808201808211156108d3576108d3612a99565b8481526001600160401b0360c01b8460c01b16602082015282602882015260008251612fb88160488501602087016120b4565b9190910160480195945050505050565b600060208284031215612fda57600080fd5b8151610a898161211756fea26469706673582212200d4501b07b8a45b1dbccc79b31bbe96ba57e73bea0ccd24a798a83c3c616f1e464736f6c63430008150033","linkReferences":{}},"methodIdentifiers":{"SEND()":"1f5e1334","SEND_AND_CALL()":"134d4f25","allowInitializePath((uint32,bytes32,uint64))":"ff7bd03d","allowance(address,address)":"dd62ed3e","approvalRequired()":"9f68b964","approve(address,uint256)":"095ea7b3","balanceOf(address)":"70a08231","combineOptions(uint32,uint16,bytes)":"bc70b354","decimalConversionRate()":"963efcaa","decimals()":"313ce567","endpoint()":"5e280f11","enforcedOptions(uint32,uint16)":"5535d461","isComposeMsgSender((uint32,bytes32,uint64),bytes,address)":"82413eac","isPeer(uint32,bytes32)":"5a0dfe4d","lzReceive((uint32,bytes32,uint64),bytes32,bytes,address,bytes)":"13137d65","lzReceiveAndRevert(((uint32,bytes32,uint64),uint32,address,bytes32,uint256,address,bytes,bytes)[])":"bd815db0","lzReceiveSimulate((uint32,bytes32,uint64),bytes32,bytes,address,bytes)":"d045a0dc","msgInspector()":"111ecdad","name()":"06fdde03","nextNonce(uint32,bytes32)":"7d25a05e","oApp()":"52ae2879","oAppVersion()":"17442b70","oftVersion()":"156a0d0f","owner()":"8da5cb5b","peers(uint32)":"bb0b6a53","preCrime()":"b731ea0a","quoteOFT((uint32,bytes32,uint256,uint256,bytes,bytes,bytes))":"0d35b415","quoteSend((uint32,bytes32,uint256,uint256,bytes,bytes,bytes),bool)":"3b6f743b","renounceOwnership()":"715018a6","send((uint32,bytes32,uint256,uint256,bytes,bytes,bytes),(uint256,uint256),address)":"c7c7f5b3","setDelegate(address)":"ca5eb5e1","setEnforcedOptions((uint32,uint16,bytes)[])":"b98bd070","setMsgInspector(address)":"6fc1b31e","setPeer(uint32,bytes32)":"3400288b","setPreCrime(address)":"d4243885","sharedDecimals()":"857749b0","symbol()":"95d89b41","token()":"fc0c546a","totalSupply()":"18160ddd","transfer(address,uint256)":"a9059cbb","transferFrom(address,address,uint256)":"23b872dd","transferOwnership(address)":"f2fde38b"},"id":67}